{
  "_format": "hh-sol-artifact-1",
  "contractName": "Exchange",
  "sourceName": "contracts/Exchange.sol",
  "abi": [
    {
      "inputs": [
        {
          "internalType": "address",
          "name": "_tokenAddress",
          "type": "address"
        },
        {
          "internalType": "uint256",
          "name": "_price",
          "type": "uint256"
        }
      ],
      "stateMutability": "nonpayable",
      "type": "constructor"
    },
    {
      "anonymous": false,
      "inputs": [
        {
          "indexed": false,
          "internalType": "uint256",
          "name": "tokensDeposited",
          "type": "uint256"
        },
        {
          "indexed": false,
          "internalType": "uint256",
          "name": "ethDeposited",
          "type": "uint256"
        }
      ],
      "name": "LiquidityDeposited",
      "type": "event"
    },
    {
      "anonymous": false,
      "inputs": [
        {
          "indexed": false,
          "internalType": "uint256",
          "name": "newPrice",
          "type": "uint256"
        }
      ],
      "name": "PriceUpdated",
      "type": "event"
    },
    {
      "anonymous": false,
      "inputs": [
        {
          "indexed": true,
          "internalType": "address",
          "name": "buyer",
          "type": "address"
        },
        {
          "indexed": false,
          "internalType": "uint256",
          "name": "ethSpent",
          "type": "uint256"
        },
        {
          "indexed": false,
          "internalType": "uint256",
          "name": "tokensBought",
          "type": "uint256"
        }
      ],
      "name": "TokensBought",
      "type": "event"
    },
    {
      "anonymous": false,
      "inputs": [
        {
          "indexed": true,
          "internalType": "address",
          "name": "seller",
          "type": "address"
        },
        {
          "indexed": false,
          "internalType": "uint256",
          "name": "tokensSold",
          "type": "uint256"
        },
        {
          "indexed": false,
          "internalType": "uint256",
          "name": "ethReturned",
          "type": "uint256"
        }
      ],
      "name": "TokensSold",
      "type": "event"
    },
    {
      "inputs": [],
      "name": "buyTokens",
      "outputs": [],
      "stateMutability": "payable",
      "type": "function"
    },
    {
      "inputs": [
        {
          "internalType": "uint256",
          "name": "tokenAmount",
          "type": "uint256"
        }
      ],
      "name": "depositLiquidity",
      "outputs": [],
      "stateMutability": "payable",
      "type": "function"
    },
    {
      "inputs": [],
      "name": "getReserves",
      "outputs": [
        {
          "internalType": "uint256",
          "name": "tokenReserve",
          "type": "uint256"
        },
        {
          "internalType": "uint256",
          "name": "ethReserve",
          "type": "uint256"
        }
      ],
      "stateMutability": "view",
      "type": "function"
    },
    {
      "inputs": [],
      "name": "owner",
      "outputs": [
        {
          "internalType": "address",
          "name": "",
          "type": "address"
        }
      ],
      "stateMutability": "view",
      "type": "function"
    },
    {
      "inputs": [],
      "name": "price",
      "outputs": [
        {
          "internalType": "uint256",
          "name": "",
          "type": "uint256"
        }
      ],
      "stateMutability": "view",
      "type": "function"
    },
    {
      "inputs": [
        {
          "internalType": "uint256",
          "name": "tokensToSell",
          "type": "uint256"
        }
      ],
      "name": "sellTokens",
      "outputs": [],
      "stateMutability": "nonpayable",
      "type": "function"
    },
    {
      "inputs": [],
      "name": "token",
      "outputs": [
        {
          "internalType": "contract Token",
          "name": "",
          "type": "address"
        }
      ],
      "stateMutability": "view",
      "type": "function"
    },
    {
      "inputs": [
        {
          "internalType": "uint256",
          "name": "newPrice",
          "type": "uint256"
        }
      ],
      "name": "updatePrice",
      "outputs": [],
      "stateMutability": "nonpayable",
      "type": "function"
    },
    {
      "stateMutability": "payable",
      "type": "receive"
    }
  ],
  "bytecode": "0x60806040523480156200001157600080fd5b506040516200162f3803806200162f83398181016040528101906200003791906200016c565b816000806101000a81548173ffffffffffffffffffffffffffffffffffffffff021916908373ffffffffffffffffffffffffffffffffffffffff16021790555033600160006101000a81548173ffffffffffffffffffffffffffffffffffffffff021916908373ffffffffffffffffffffffffffffffffffffffff160217905550806002819055505050620001b3565b600080fd5b600073ffffffffffffffffffffffffffffffffffffffff82169050919050565b6000620000f982620000cc565b9050919050565b6200010b81620000ec565b81146200011757600080fd5b50565b6000815190506200012b8162000100565b92915050565b6000819050919050565b620001468162000131565b81146200015257600080fd5b50565b60008151905062000166816200013b565b92915050565b60008060408385031215620001865762000185620000c7565b5b600062000196858286016200011a565b9250506020620001a98582860162000155565b9150509250929050565b61146c80620001c36000396000f3fe60806040526004361061007f5760003560e01c80638da5cb5b1161004e5780638da5cb5b14610125578063a035b1fe14610150578063d0febe4c1461017b578063fc0c546a1461018557610086565b80630902f1ac1461008b5780636c11bcd3146100b757806376d58e1a146100e05780638d6cc56d146100fc57610086565b3661008657005b600080fd5b34801561009757600080fd5b506100a06101b0565b6040516100ae929190610b6b565b60405180910390f35b3480156100c357600080fd5b506100de60048036038101906100d99190610bc5565b610256565b005b6100fa60048036038101906100f59190610bc5565b610514565b005b34801561010857600080fd5b50610123600480360381019061011e9190610bc5565b6106e1565b005b34801561013157600080fd5b5061013a6107b2565b6040516101479190610c33565b60405180910390f35b34801561015c57600080fd5b506101656107d8565b6040516101729190610c4e565b60405180910390f35b6101836107de565b005b34801561019157600080fd5b5061019a610b2e565b6040516101a79190610cc8565b60405180910390f35b60008060008054906101000a900473ffffffffffffffffffffffffffffffffffffffff1673ffffffffffffffffffffffffffffffffffffffff166370a08231306040518263ffffffff1660e01b815260040161020c9190610c33565b602060405180830381865afa158015610229573d6000803e3d6000fd5b505050506040513d601f19601f8201168201806040525081019061024d9190610cf8565b91504790509091565b60008111610299576040517f08c379a000000000000000000000000000000000000000000000000000000000815260040161029090610d82565b60405180910390fd5b60008060009054906101000a900473ffffffffffffffffffffffffffffffffffffffff1673ffffffffffffffffffffffffffffffffffffffff1663313ce5676040518163ffffffff1660e01b8152600401602060405180830381865afa158015610307573d6000803e3d6000fd5b505050506040513d601f19601f8201168201806040525081019061032b9190610ddb565b600a6103379190610f6a565b90506000816002548461034a9190610fb5565b6103549190611026565b905080471015610399576040517f08c379a0000000000000000000000000000000000000000000000000000000008152600401610390906110a3565b60405180910390fd5b60008054906101000a900473ffffffffffffffffffffffffffffffffffffffff1673ffffffffffffffffffffffffffffffffffffffff166323b872dd3330866040518463ffffffff1660e01b81526004016103f6939291906110c3565b6020604051808303816000875af1158015610415573d6000803e3d6000fd5b505050506040513d601f19601f820116820180604052508101906104399190611132565b610478576040517f08c379a000000000000000000000000000000000000000000000000000000000815260040161046f906111ab565b60405180910390fd5b3373ffffffffffffffffffffffffffffffffffffffff166108fc829081150290604051600060405180830381858888f193505050501580156104be573d6000803e3d6000fd5b503373ffffffffffffffffffffffffffffffffffffffff167f2dcf9433d75db0d8b1c172641f85e319ffe4ad22e108a95d1847ceb906e5195d8483604051610507929190610b6b565b60405180910390a2505050565b600160009054906101000a900473ffffffffffffffffffffffffffffffffffffffff1673ffffffffffffffffffffffffffffffffffffffff163373ffffffffffffffffffffffffffffffffffffffff16146105a4576040517f08c379a000000000000000000000000000000000000000000000000000000000815260040161059b90611217565b60405180910390fd5b60008054906101000a900473ffffffffffffffffffffffffffffffffffffffff1673ffffffffffffffffffffffffffffffffffffffff166323b872dd600160009054906101000a900473ffffffffffffffffffffffffffffffffffffffff1630846040518463ffffffff1660e01b8152600401610623939291906110c3565b6020604051808303816000875af1158015610642573d6000803e3d6000fd5b505050506040513d601f19601f820116820180604052508101906106669190611132565b6106a5576040517f08c379a000000000000000000000000000000000000000000000000000000000815260040161069c906111ab565b60405180910390fd5b7f9c86429231ed0411e3112a1dd5c6578826c2d48089d5ec491e874ce0029c0bbe81346040516106d6929190610b6b565b60405180910390a150565b600160009054906101000a900473ffffffffffffffffffffffffffffffffffffffff1673ffffffffffffffffffffffffffffffffffffffff163373ffffffffffffffffffffffffffffffffffffffff1614610771576040517f08c379a000000000000000000000000000000000000000000000000000000000815260040161076890611283565b60405180910390fd5b806002819055507f66cbca4f3c64fecf1dcb9ce094abcf7f68c3450a1d4e3a8e917dd621edb4ebe0816040516107a79190610c4e565b60405180910390a150565b600160009054906101000a900473ffffffffffffffffffffffffffffffffffffffff1681565b60025481565b60003411610821576040517f08c379a0000000000000000000000000000000000000000000000000000000008152600401610818906112ef565b60405180910390fd5b60008060009054906101000a900473ffffffffffffffffffffffffffffffffffffffff1673ffffffffffffffffffffffffffffffffffffffff1663313ce5676040518163ffffffff1660e01b8152600401602060405180830381865afa15801561088f573d6000803e3d6000fd5b505050506040513d601f19601f820116820180604052508101906108b39190610ddb565b600a6108bf9190610f6a565b9050600060025482346108d29190610fb5565b6108dc9190611026565b905060008111610921576040517f08c379a000000000000000000000000000000000000000000000000000000000815260040161091890611381565b60405180910390fd5b8060008054906101000a900473ffffffffffffffffffffffffffffffffffffffff1673ffffffffffffffffffffffffffffffffffffffff166370a08231306040518263ffffffff1660e01b815260040161097b9190610c33565b602060405180830381865afa158015610998573d6000803e3d6000fd5b505050506040513d601f19601f820116820180604052508101906109bc9190610cf8565b10156109fd576040517f08c379a00000000000000000000000000000000000000000000000000000000081526004016109f4906113ed565b60405180910390fd5b60008054906101000a900473ffffffffffffffffffffffffffffffffffffffff1673ffffffffffffffffffffffffffffffffffffffff1663a9059cbb33836040518363ffffffff1660e01b8152600401610a5892919061140d565b6020604051808303816000875af1158015610a77573d6000803e3d6000fd5b505050506040513d601f19601f82011682018060405250810190610a9b9190611132565b610ada576040517f08c379a0000000000000000000000000000000000000000000000000000000008152600401610ad1906111ab565b60405180910390fd5b3373ffffffffffffffffffffffffffffffffffffffff167f8442948036198f1146d3a63c3db355d7e0295c2cc5676c755990445da4fdc1c93483604051610b22929190610b6b565b60405180910390a25050565b60008054906101000a900473ffffffffffffffffffffffffffffffffffffffff1681565b6000819050919050565b610b6581610b52565b82525050565b6000604082019050610b806000830185610b5c565b610b8d6020830184610b5c565b9392505050565b600080fd5b610ba281610b52565b8114610bad57600080fd5b50565b600081359050610bbf81610b99565b92915050565b600060208284031215610bdb57610bda610b94565b5b6000610be984828501610bb0565b91505092915050565b600073ffffffffffffffffffffffffffffffffffffffff82169050919050565b6000610c1d82610bf2565b9050919050565b610c2d81610c12565b82525050565b6000602082019050610c486000830184610c24565b92915050565b6000602082019050610c636000830184610b5c565b92915050565b6000819050919050565b6000610c8e610c89610c8484610bf2565b610c69565b610bf2565b9050919050565b6000610ca082610c73565b9050919050565b6000610cb282610c95565b9050919050565b610cc281610ca7565b82525050565b6000602082019050610cdd6000830184610cb9565b92915050565b600081519050610cf281610b99565b92915050565b600060208284031215610d0e57610d0d610b94565b5b6000610d1c84828501610ce3565b91505092915050565b600082825260208201905092915050565b7f416d6f756e74206d7573742062652067726561746572207468616e2030000000600082015250565b6000610d6c601d83610d25565b9150610d7782610d36565b602082019050919050565b60006020820190508181036000830152610d9b81610d5f565b9050919050565b600060ff82169050919050565b610db881610da2565b8114610dc357600080fd5b50565b600081519050610dd581610daf565b92915050565b600060208284031215610df157610df0610b94565b5b6000610dff84828501610dc6565b91505092915050565b7f4e487b7100000000000000000000000000000000000000000000000000000000600052601160045260246000fd5b60008160011c9050919050565b6000808291508390505b6001851115610e8e57808604811115610e6a57610e69610e08565b5b6001851615610e795780820291505b8081029050610e8785610e37565b9450610e4e565b94509492505050565b600082610ea75760019050610f63565b81610eb55760009050610f63565b8160018114610ecb5760028114610ed557610f04565b6001915050610f63565b60ff841115610ee757610ee6610e08565b5b8360020a915084821115610efe57610efd610e08565b5b50610f63565b5060208310610133831016604e8410600b8410161715610f395782820a905083811115610f3457610f33610e08565b5b610f63565b610f468484846001610e44565b92509050818404811115610f5d57610f5c610e08565b5b81810290505b9392505050565b6000610f7582610b52565b9150610f8083610da2565b9250610fad7fffffffffffffffffffffffffffffffffffffffffffffffffffffffffffffffff8484610e97565b905092915050565b6000610fc082610b52565b9150610fcb83610b52565b9250828202610fd981610b52565b91508282048414831517610ff057610fef610e08565b5b5092915050565b7f4e487b7100000000000000000000000000000000000000000000000000000000600052601260045260246000fd5b600061103182610b52565b915061103c83610b52565b92508261104c5761104b610ff7565b5b828204905092915050565b7f4e6f7420656e6f7567682045544820696e206c69717569646974790000000000600082015250565b600061108d601b83610d25565b915061109882611057565b602082019050919050565b600060208201905081810360008301526110bc81611080565b9050919050565b60006060820190506110d86000830186610c24565b6110e56020830185610c24565b6110f26040830184610b5c565b949350505050565b60008115159050919050565b61110f816110fa565b811461111a57600080fd5b50565b60008151905061112c81611106565b92915050565b60006020828403121561114857611147610b94565b5b60006111568482850161111d565b91505092915050565b7f546f6b656e207472616e73666572206661696c65640000000000000000000000600082015250565b6000611195601583610d25565b91506111a08261115f565b602082019050919050565b600060208201905081810360008301526111c481611188565b9050919050565b7f4f6e6c79206f776e65722063616e206465706f736974206c6971756964697479600082015250565b6000611201602083610d25565b915061120c826111cb565b602082019050919050565b60006020820190508181036000830152611230816111f4565b9050919050565b7f4f6e6c79206f776e65722063616e207570646174652070726963650000000000600082015250565b600061126d601b83610d25565b915061127882611237565b602082019050919050565b6000602082019050818103600083015261129c81611260565b9050919050565b7f53656e642045544820746f2062757920746f6b656e7300000000000000000000600082015250565b60006112d9601683610d25565b91506112e4826112a3565b602082019050919050565b60006020820190508181036000830152611308816112cc565b9050919050565b7f4e6f7420656e6f756768204554482073656e7420746f2062757920746f6b656e60008201527f7300000000000000000000000000000000000000000000000000000000000000602082015250565b600061136b602183610d25565b91506113768261130f565b604082019050919050565b6000602082019050818103600083015261139a8161135e565b9050919050565b7f4e6f7420656e6f75676820746f6b656e7320696e206c69717569646974790000600082015250565b60006113d7601e83610d25565b91506113e2826113a1565b602082019050919050565b60006020820190508181036000830152611406816113ca565b9050919050565b60006040820190506114226000830185610c24565b61142f6020830184610b5c565b939250505056fea2646970667358221220be32ebb10708eaee1ce50f3df6c807d9f69a15899351397dfa9213ef02b4287864736f6c63430008140033",
  "linkReferences": {},
  "deployedLinkReferences": {}
}