{
  "_format": "hh-sol-artifact-1",
  "contractName": "Exchange",
  "sourceName": "contracts/Exchange.sol",
  "abi": [
    {
      "inputs": [
        {
          "internalType": "address",
          "name": "_tokenAddress",
          "type": "address"
        },
        {
          "internalType": "uint256",
          "name": "_price",
          "type": "uint256"
        },
        {
          "internalType": "address",
          "name": "_priceFeed",
          "type": "address"
        }
      ],
      "stateMutability": "nonpayable",
      "type": "constructor"
    },
    {
      "anonymous": false,
      "inputs": [
        {
          "indexed": false,
          "internalType": "uint256",
          "name": "tokensDeposited",
          "type": "uint256"
        },
        {
          "indexed": false,
          "internalType": "uint256",
          "name": "ethDeposited",
          "type": "uint256"
        }
      ],
      "name": "LiquidityDeposited",
      "type": "event"
    },
    {
      "anonymous": false,
      "inputs": [
        {
          "indexed": false,
          "internalType": "uint256",
          "name": "newPrice",
          "type": "uint256"
        }
      ],
      "name": "PriceUpdated",
      "type": "event"
    },
    {
      "anonymous": false,
      "inputs": [
        {
          "indexed": true,
          "internalType": "address",
          "name": "buyer",
          "type": "address"
        },
        {
          "indexed": false,
          "internalType": "uint256",
          "name": "ethSpent",
          "type": "uint256"
        },
        {
          "indexed": false,
          "internalType": "uint256",
          "name": "tokensBought",
          "type": "uint256"
        }
      ],
      "name": "TokensBought",
      "type": "event"
    },
    {
      "anonymous": false,
      "inputs": [
        {
          "indexed": true,
          "internalType": "address",
          "name": "seller",
          "type": "address"
        },
        {
          "indexed": false,
          "internalType": "uint256",
          "name": "tokensSold",
          "type": "uint256"
        },
        {
          "indexed": false,
          "internalType": "uint256",
          "name": "ethReturned",
          "type": "uint256"
        }
      ],
      "name": "TokensSold",
      "type": "event"
    },
    {
      "inputs": [],
      "name": "buyTokens",
      "outputs": [],
      "stateMutability": "payable",
      "type": "function"
    },
    {
      "inputs": [
        {
          "internalType": "uint256",
          "name": "tokenAmount",
          "type": "uint256"
        }
      ],
      "name": "depositLiquidity",
      "outputs": [],
      "stateMutability": "payable",
      "type": "function"
    },
    {
      "inputs": [],
      "name": "getEthUsdPrice",
      "outputs": [
        {
          "internalType": "int256",
          "name": "",
          "type": "int256"
        }
      ],
      "stateMutability": "view",
      "type": "function"
    },
    {
      "inputs": [],
      "name": "getReserves",
      "outputs": [
        {
          "internalType": "uint256",
          "name": "tokenReserve",
          "type": "uint256"
        },
        {
          "internalType": "uint256",
          "name": "ethReserve",
          "type": "uint256"
        }
      ],
      "stateMutability": "view",
      "type": "function"
    },
    {
      "inputs": [],
      "name": "getTokenPriceInUsd",
      "outputs": [
        {
          "internalType": "uint256",
          "name": "",
          "type": "uint256"
        }
      ],
      "stateMutability": "view",
      "type": "function"
    },
    {
      "inputs": [],
      "name": "owner",
      "outputs": [
        {
          "internalType": "address",
          "name": "",
          "type": "address"
        }
      ],
      "stateMutability": "view",
      "type": "function"
    },
    {
      "inputs": [],
      "name": "price",
      "outputs": [
        {
          "internalType": "uint256",
          "name": "",
          "type": "uint256"
        }
      ],
      "stateMutability": "view",
      "type": "function"
    },
    {
      "inputs": [
        {
          "internalType": "uint256",
          "name": "tokensToSell",
          "type": "uint256"
        }
      ],
      "name": "sellTokens",
      "outputs": [],
      "stateMutability": "nonpayable",
      "type": "function"
    },
    {
      "inputs": [],
      "name": "token",
      "outputs": [
        {
          "internalType": "contract Token",
          "name": "",
          "type": "address"
        }
      ],
      "stateMutability": "view",
      "type": "function"
    },
    {
      "inputs": [
        {
          "internalType": "uint256",
          "name": "newPrice",
          "type": "uint256"
        }
      ],
      "name": "updatePrice",
      "outputs": [],
      "stateMutability": "nonpayable",
      "type": "function"
    },
    {
      "stateMutability": "payable",
      "type": "receive"
    }
  ],
  "bytecode": "0x60806040523480156200001157600080fd5b506040516200196c3803806200196c8339818101604052810190620000379190620001ae565b826000806101000a81548173ffffffffffffffffffffffffffffffffffffffff021916908373ffffffffffffffffffffffffffffffffffffffff16021790555033600160006101000a81548173ffffffffffffffffffffffffffffffffffffffff021916908373ffffffffffffffffffffffffffffffffffffffff1602179055508160028190555080600360006101000a81548173ffffffffffffffffffffffffffffffffffffffff021916908373ffffffffffffffffffffffffffffffffffffffff1602179055505050506200020a565b600080fd5b600073ffffffffffffffffffffffffffffffffffffffff82169050919050565b60006200013b826200010e565b9050919050565b6200014d816200012e565b81146200015957600080fd5b50565b6000815190506200016d8162000142565b92915050565b6000819050919050565b620001888162000173565b81146200019457600080fd5b50565b600081519050620001a8816200017d565b92915050565b600080600060608486031215620001ca57620001c962000109565b5b6000620001da868287016200015c565b9350506020620001ed8682870162000197565b925050604062000200868287016200015c565b9150509250925092565b611752806200021a6000396000f3fe6080604052600436106100955760003560e01c8063a035b1fe11610059578063a035b1fe14610166578063a0a8045e14610191578063d0febe4c146101bc578063ed734b44146101c6578063fc0c546a146101f15761009c565b80630902f1ac146100a15780636c11bcd3146100cd57806376d58e1a146100f65780638d6cc56d146101125780638da5cb5b1461013b5761009c565b3661009c57005b600080fd5b3480156100ad57600080fd5b506100b661021c565b6040516100c4929190610d34565b60405180910390f35b3480156100d957600080fd5b506100f460048036038101906100ef9190610d8e565b6102c2565b005b610110600480360381019061010b9190610d8e565b610580565b005b34801561011e57600080fd5b5061013960048036038101906101349190610d8e565b61074d565b005b34801561014757600080fd5b5061015061081e565b60405161015d9190610dfc565b60405180910390f35b34801561017257600080fd5b5061017b610844565b6040516101889190610e17565b60405180910390f35b34801561019d57600080fd5b506101a661084a565b6040516101b39190610e4b565b60405180910390f35b6101c46108eb565b005b3480156101d257600080fd5b506101db610c3b565b6040516101e89190610e17565b60405180910390f35b3480156101fd57600080fd5b50610206610cf7565b6040516102139190610ec5565b60405180910390f35b60008060008054906101000a900473ffffffffffffffffffffffffffffffffffffffff1673ffffffffffffffffffffffffffffffffffffffff166370a08231306040518263ffffffff1660e01b81526004016102789190610dfc565b602060405180830381865afa158015610295573d6000803e3d6000fd5b505050506040513d601f19601f820116820180604052508101906102b99190610ef5565b91504790509091565b60008111610305576040517f08c379a00000000000000000000000000000000000000000000000000000000081526004016102fc90610f7f565b60405180910390fd5b60008060009054906101000a900473ffffffffffffffffffffffffffffffffffffffff1673ffffffffffffffffffffffffffffffffffffffff1663313ce5676040518163ffffffff1660e01b8152600401602060405180830381865afa158015610373573d6000803e3d6000fd5b505050506040513d601f19601f820116820180604052508101906103979190610fd8565b600a6103a39190611167565b9050600081600254846103b691906111b2565b6103c09190611223565b905080471015610405576040517f08c379a00000000000000000000000000000000000000000000000000000000081526004016103fc906112a0565b60405180910390fd5b60008054906101000a900473ffffffffffffffffffffffffffffffffffffffff1673ffffffffffffffffffffffffffffffffffffffff166323b872dd3330866040518463ffffffff1660e01b8152600401610462939291906112c0565b6020604051808303816000875af1158015610481573d6000803e3d6000fd5b505050506040513d601f19601f820116820180604052508101906104a5919061132f565b6104e4576040517f08c379a00000000000000000000000000000000000000000000000000000000081526004016104db906113a8565b60405180910390fd5b3373ffffffffffffffffffffffffffffffffffffffff166108fc829081150290604051600060405180830381858888f1935050505015801561052a573d6000803e3d6000fd5b503373ffffffffffffffffffffffffffffffffffffffff167f2dcf9433d75db0d8b1c172641f85e319ffe4ad22e108a95d1847ceb906e5195d8483604051610573929190610d34565b60405180910390a2505050565b600160009054906101000a900473ffffffffffffffffffffffffffffffffffffffff1673ffffffffffffffffffffffffffffffffffffffff163373ffffffffffffffffffffffffffffffffffffffff1614610610576040517f08c379a000000000000000000000000000000000000000000000000000000000815260040161060790611414565b60405180910390fd5b60008054906101000a900473ffffffffffffffffffffffffffffffffffffffff1673ffffffffffffffffffffffffffffffffffffffff166323b872dd600160009054906101000a900473ffffffffffffffffffffffffffffffffffffffff1630846040518463ffffffff1660e01b815260040161068f939291906112c0565b6020604051808303816000875af11580156106ae573d6000803e3d6000fd5b505050506040513d601f19601f820116820180604052508101906106d2919061132f565b610711576040517f08c379a0000000000000000000000000000000000000000000000000000000008152600401610708906113a8565b60405180910390fd5b7f9c86429231ed0411e3112a1dd5c6578826c2d48089d5ec491e874ce0029c0bbe8134604051610742929190610d34565b60405180910390a150565b600160009054906101000a900473ffffffffffffffffffffffffffffffffffffffff1673ffffffffffffffffffffffffffffffffffffffff163373ffffffffffffffffffffffffffffffffffffffff16146107dd576040517f08c379a00000000000000000000000000000000000000000000000000000000081526004016107d490611480565b60405180910390fd5b806002819055507f66cbca4f3c64fecf1dcb9ce094abcf7f68c3450a1d4e3a8e917dd621edb4ebe0816040516108139190610e17565b60405180910390a150565b600160009054906101000a900473ffffffffffffffffffffffffffffffffffffffff1681565b60025481565b600080600360009054906101000a900473ffffffffffffffffffffffffffffffffffffffff1673ffffffffffffffffffffffffffffffffffffffff1663feaf968c6040518163ffffffff1660e01b815260040160a060405180830381865afa1580156108ba573d6000803e3d6000fd5b505050506040513d601f19601f820116820180604052508101906108de919061150e565b5050509150508091505090565b6000341161092e576040517f08c379a0000000000000000000000000000000000000000000000000000000008152600401610925906115d5565b60405180910390fd5b60008060009054906101000a900473ffffffffffffffffffffffffffffffffffffffff1673ffffffffffffffffffffffffffffffffffffffff1663313ce5676040518163ffffffff1660e01b8152600401602060405180830381865afa15801561099c573d6000803e3d6000fd5b505050506040513d601f19601f820116820180604052508101906109c09190610fd8565b600a6109cc9190611167565b9050600060025482346109df91906111b2565b6109e99190611223565b905060008111610a2e576040517f08c379a0000000000000000000000000000000000000000000000000000000008152600401610a2590611667565b60405180910390fd5b8060008054906101000a900473ffffffffffffffffffffffffffffffffffffffff1673ffffffffffffffffffffffffffffffffffffffff166370a08231306040518263ffffffff1660e01b8152600401610a889190610dfc565b602060405180830381865afa158015610aa5573d6000803e3d6000fd5b505050506040513d601f19601f82011682018060405250810190610ac99190610ef5565b1015610b0a576040517f08c379a0000000000000000000000000000000000000000000000000000000008152600401610b01906116d3565b60405180910390fd5b60008054906101000a900473ffffffffffffffffffffffffffffffffffffffff1673ffffffffffffffffffffffffffffffffffffffff1663a9059cbb33836040518363ffffffff1660e01b8152600401610b659291906116f3565b6020604051808303816000875af1158015610b84573d6000803e3d6000fd5b505050506040513d601f19601f82011682018060405250810190610ba8919061132f565b610be7576040517f08c379a0000000000000000000000000000000000000000000000000000000008152600401610bde906113a8565b60405180910390fd5b3373ffffffffffffffffffffffffffffffffffffffff167f8442948036198f1146d3a63c3db355d7e0295c2cc5676c755990445da4fdc1c93483604051610c2f929190610d34565b60405180910390a25050565b60008060008054906101000a900473ffffffffffffffffffffffffffffffffffffffff1673ffffffffffffffffffffffffffffffffffffffff1663313ce5676040518163ffffffff1660e01b8152600401602060405180830381865afa158015610ca9573d6000803e3d6000fd5b505050506040513d601f19601f82011682018060405250810190610ccd9190610fd8565b600a610cd99190611167565b90506000610ce561084a565b90506000600254905081935050505090565b60008054906101000a900473ffffffffffffffffffffffffffffffffffffffff1681565b6000819050919050565b610d2e81610d1b565b82525050565b6000604082019050610d496000830185610d25565b610d566020830184610d25565b9392505050565b600080fd5b610d6b81610d1b565b8114610d7657600080fd5b50565b600081359050610d8881610d62565b92915050565b600060208284031215610da457610da3610d5d565b5b6000610db284828501610d79565b91505092915050565b600073ffffffffffffffffffffffffffffffffffffffff82169050919050565b6000610de682610dbb565b9050919050565b610df681610ddb565b82525050565b6000602082019050610e116000830184610ded565b92915050565b6000602082019050610e2c6000830184610d25565b92915050565b6000819050919050565b610e4581610e32565b82525050565b6000602082019050610e606000830184610e3c565b92915050565b6000819050919050565b6000610e8b610e86610e8184610dbb565b610e66565b610dbb565b9050919050565b6000610e9d82610e70565b9050919050565b6000610eaf82610e92565b9050919050565b610ebf81610ea4565b82525050565b6000602082019050610eda6000830184610eb6565b92915050565b600081519050610eef81610d62565b92915050565b600060208284031215610f0b57610f0a610d5d565b5b6000610f1984828501610ee0565b91505092915050565b600082825260208201905092915050565b7f416d6f756e74206d7573742062652067726561746572207468616e2030000000600082015250565b6000610f69601d83610f22565b9150610f7482610f33565b602082019050919050565b60006020820190508181036000830152610f9881610f5c565b9050919050565b600060ff82169050919050565b610fb581610f9f565b8114610fc057600080fd5b50565b600081519050610fd281610fac565b92915050565b600060208284031215610fee57610fed610d5d565b5b6000610ffc84828501610fc3565b91505092915050565b7f4e487b7100000000000000000000000000000000000000000000000000000000600052601160045260246000fd5b60008160011c9050919050565b6000808291508390505b600185111561108b5780860481111561106757611066611005565b5b60018516156110765780820291505b808102905061108485611034565b945061104b565b94509492505050565b6000826110a45760019050611160565b816110b25760009050611160565b81600181146110c857600281146110d257611101565b6001915050611160565b60ff8411156110e4576110e3611005565b5b8360020a9150848211156110fb576110fa611005565b5b50611160565b5060208310610133831016604e8410600b84101617156111365782820a90508381111561113157611130611005565b5b611160565b6111438484846001611041565b9250905081840481111561115a57611159611005565b5b81810290505b9392505050565b600061117282610d1b565b915061117d83610f9f565b92506111aa7fffffffffffffffffffffffffffffffffffffffffffffffffffffffffffffffff8484611094565b905092915050565b60006111bd82610d1b565b91506111c883610d1b565b92508282026111d681610d1b565b915082820484148315176111ed576111ec611005565b5b5092915050565b7f4e487b7100000000000000000000000000000000000000000000000000000000600052601260045260246000fd5b600061122e82610d1b565b915061123983610d1b565b925082611249576112486111f4565b5b828204905092915050565b7f4e6f7420656e6f7567682045544820696e206c69717569646974790000000000600082015250565b600061128a601b83610f22565b915061129582611254565b602082019050919050565b600060208201905081810360008301526112b98161127d565b9050919050565b60006060820190506112d56000830186610ded565b6112e26020830185610ded565b6112ef6040830184610d25565b949350505050565b60008115159050919050565b61130c816112f7565b811461131757600080fd5b50565b60008151905061132981611303565b92915050565b60006020828403121561134557611344610d5d565b5b60006113538482850161131a565b91505092915050565b7f546f6b656e207472616e73666572206661696c65640000000000000000000000600082015250565b6000611392601583610f22565b915061139d8261135c565b602082019050919050565b600060208201905081810360008301526113c181611385565b9050919050565b7f4f6e6c79206f776e65722063616e206465706f736974206c6971756964697479600082015250565b60006113fe602083610f22565b9150611409826113c8565b602082019050919050565b6000602082019050818103600083015261142d816113f1565b9050919050565b7f4f6e6c79206f776e65722063616e207570646174652070726963650000000000600082015250565b600061146a601b83610f22565b915061147582611434565b602082019050919050565b600060208201905081810360008301526114998161145d565b9050919050565b600069ffffffffffffffffffff82169050919050565b6114bf816114a0565b81146114ca57600080fd5b50565b6000815190506114dc816114b6565b92915050565b6114eb81610e32565b81146114f657600080fd5b50565b600081519050611508816114e2565b92915050565b600080600080600060a0868803121561152a57611529610d5d565b5b6000611538888289016114cd565b9550506020611549888289016114f9565b945050604061155a88828901610ee0565b935050606061156b88828901610ee0565b925050608061157c888289016114cd565b9150509295509295909350565b7f53656e642045544820746f2062757920746f6b656e7300000000000000000000600082015250565b60006115bf601683610f22565b91506115ca82611589565b602082019050919050565b600060208201905081810360008301526115ee816115b2565b9050919050565b7f4e6f7420656e6f756768204554482073656e7420746f2062757920746f6b656e60008201527f7300000000000000000000000000000000000000000000000000000000000000602082015250565b6000611651602183610f22565b915061165c826115f5565b604082019050919050565b6000602082019050818103600083015261168081611644565b9050919050565b7f4e6f7420656e6f75676820746f6b656e7320696e206c69717569646974790000600082015250565b60006116bd601e83610f22565b91506116c882611687565b602082019050919050565b600060208201905081810360008301526116ec816116b0565b9050919050565b60006040820190506117086000830185610ded565b6117156020830184610d25565b939250505056fea26469706673582212205846c637d15f6e2d78220e40000ed3371752e4a0f62f2079f7331d9d703e062d64736f6c63430008140033",
  "linkReferences": {},
  "deployedLinkReferences": {}
}