{
  "_format": "hh-sol-artifact-1",
  "contractName": "Exchange",
  "sourceName": "contracts/Exchange.sol",
  "abi": [
    {
      "inputs": [
        {
          "internalType": "address",
          "name": "_tokenAddress",
          "type": "address"
        },
        {
          "internalType": "uint256",
          "name": "_price",
          "type": "uint256"
        }
      ],
      "stateMutability": "nonpayable",
      "type": "constructor"
    },
    {
      "anonymous": false,
      "inputs": [
        {
          "indexed": true,
          "internalType": "address",
          "name": "buyer",
          "type": "address"
        },
        {
          "indexed": false,
          "internalType": "uint256",
          "name": "ethSpent",
          "type": "uint256"
        },
        {
          "indexed": false,
          "internalType": "uint256",
          "name": "tokensBought",
          "type": "uint256"
        }
      ],
      "name": "TokensBought",
      "type": "event"
    },
    {
      "anonymous": false,
      "inputs": [
        {
          "indexed": true,
          "internalType": "address",
          "name": "seller",
          "type": "address"
        },
        {
          "indexed": false,
          "internalType": "uint256",
          "name": "tokensSold",
          "type": "uint256"
        },
        {
          "indexed": false,
          "internalType": "uint256",
          "name": "ethReturned",
          "type": "uint256"
        }
      ],
      "name": "TokensSold",
      "type": "event"
    },
    {
      "inputs": [],
      "name": "buyTokens",
      "outputs": [],
      "stateMutability": "payable",
      "type": "function"
    },
    {
      "inputs": [
        {
          "internalType": "uint256",
          "name": "tokenAmount",
          "type": "uint256"
        }
      ],
      "name": "depositLiquidity",
      "outputs": [],
      "stateMutability": "payable",
      "type": "function"
    },
    {
      "inputs": [],
      "name": "owner",
      "outputs": [
        {
          "internalType": "address",
          "name": "",
          "type": "address"
        }
      ],
      "stateMutability": "view",
      "type": "function"
    },
    {
      "inputs": [],
      "name": "price",
      "outputs": [
        {
          "internalType": "uint256",
          "name": "",
          "type": "uint256"
        }
      ],
      "stateMutability": "view",
      "type": "function"
    },
    {
      "inputs": [
        {
          "internalType": "uint256",
          "name": "tokensToSell",
          "type": "uint256"
        }
      ],
      "name": "sellTokens",
      "outputs": [],
      "stateMutability": "nonpayable",
      "type": "function"
    },
    {
      "inputs": [],
      "name": "token",
      "outputs": [
        {
          "internalType": "contract Token",
          "name": "",
          "type": "address"
        }
      ],
      "stateMutability": "view",
      "type": "function"
    },
    {
      "stateMutability": "payable",
      "type": "receive"
    }
  ],
  "bytecode": "0x60806040523480156200001157600080fd5b506040516200105c3803806200105c83398181016040528101906200003791906200016c565b816000806101000a81548173ffffffffffffffffffffffffffffffffffffffff021916908373ffffffffffffffffffffffffffffffffffffffff16021790555033600160006101000a81548173ffffffffffffffffffffffffffffffffffffffff021916908373ffffffffffffffffffffffffffffffffffffffff160217905550806002819055505050620001b3565b600080fd5b600073ffffffffffffffffffffffffffffffffffffffff82169050919050565b6000620000f982620000cc565b9050919050565b6200010b81620000ec565b81146200011757600080fd5b50565b6000815190506200012b8162000100565b92915050565b6000819050919050565b620001468162000131565b81146200015257600080fd5b50565b60008151905062000166816200013b565b92915050565b60008060408385031215620001865762000185620000c7565b5b600062000196858286016200011a565b9250506020620001a98582860162000155565b9150509250929050565b610e9980620001c36000396000f3fe6080604052600436106100595760003560e01c80636c11bcd31461006557806376d58e1a1461008e5780638da5cb5b146100aa578063a035b1fe146100d5578063d0febe4c14610100578063fc0c546a1461010a57610060565b3661006057005b600080fd5b34801561007157600080fd5b5061008c6004803603810190610087919061080a565b610135565b005b6100a860048036038101906100a3919061080a565b610347565b005b3480156100b657600080fd5b506100bf6104db565b6040516100cc9190610878565b60405180910390f35b3480156100e157600080fd5b506100ea610501565b6040516100f791906108a2565b60405180910390f35b610108610507565b005b34801561011657600080fd5b5061011f6107ab565b60405161012c919061091c565b60405180910390f35b60008111610178576040517f08c379a000000000000000000000000000000000000000000000000000000000815260040161016f90610994565b60405180910390fd5b60006002548261018891906109e3565b9050804710156101cd576040517f08c379a00000000000000000000000000000000000000000000000000000000081526004016101c490610a71565b60405180910390fd5b60008054906101000a900473ffffffffffffffffffffffffffffffffffffffff1673ffffffffffffffffffffffffffffffffffffffff166323b872dd3330856040518463ffffffff1660e01b815260040161022a93929190610a91565b6020604051808303816000875af1158015610249573d6000803e3d6000fd5b505050506040513d601f19601f8201168201806040525081019061026d9190610b00565b6102ac576040517f08c379a00000000000000000000000000000000000000000000000000000000081526004016102a390610b79565b60405180910390fd5b3373ffffffffffffffffffffffffffffffffffffffff166108fc829081150290604051600060405180830381858888f193505050501580156102f2573d6000803e3d6000fd5b503373ffffffffffffffffffffffffffffffffffffffff167f2dcf9433d75db0d8b1c172641f85e319ffe4ad22e108a95d1847ceb906e5195d838360405161033b929190610b99565b60405180910390a25050565b600160009054906101000a900473ffffffffffffffffffffffffffffffffffffffff1673ffffffffffffffffffffffffffffffffffffffff163373ffffffffffffffffffffffffffffffffffffffff16146103d7576040517f08c379a00000000000000000000000000000000000000000000000000000000081526004016103ce90610c0e565b60405180910390fd5b60008054906101000a900473ffffffffffffffffffffffffffffffffffffffff1673ffffffffffffffffffffffffffffffffffffffff166323b872dd600160009054906101000a900473ffffffffffffffffffffffffffffffffffffffff1630846040518463ffffffff1660e01b815260040161045693929190610a91565b6020604051808303816000875af1158015610475573d6000803e3d6000fd5b505050506040513d601f19601f820116820180604052508101906104999190610b00565b6104d8576040517f08c379a00000000000000000000000000000000000000000000000000000000081526004016104cf90610b79565b60405180910390fd5b50565b600160009054906101000a900473ffffffffffffffffffffffffffffffffffffffff1681565b60025481565b6000341161054a576040517f08c379a000000000000000000000000000000000000000000000000000000000815260040161054190610c7a565b60405180910390fd5b60006002543461055a9190610cc9565b90506000811161059f576040517f08c379a000000000000000000000000000000000000000000000000000000000815260040161059690610d6c565b60405180910390fd5b8060008054906101000a900473ffffffffffffffffffffffffffffffffffffffff1673ffffffffffffffffffffffffffffffffffffffff166370a08231306040518263ffffffff1660e01b81526004016105f99190610878565b602060405180830381865afa158015610616573d6000803e3d6000fd5b505050506040513d601f19601f8201168201806040525081019061063a9190610da1565b101561067b576040517f08c379a000000000000000000000000000000000000000000000000000000000815260040161067290610e1a565b60405180910390fd5b60008054906101000a900473ffffffffffffffffffffffffffffffffffffffff1673ffffffffffffffffffffffffffffffffffffffff1663a9059cbb33836040518363ffffffff1660e01b81526004016106d6929190610e3a565b6020604051808303816000875af11580156106f5573d6000803e3d6000fd5b505050506040513d601f19601f820116820180604052508101906107199190610b00565b610758576040517f08c379a000000000000000000000000000000000000000000000000000000000815260040161074f90610b79565b60405180910390fd5b3373ffffffffffffffffffffffffffffffffffffffff167f8442948036198f1146d3a63c3db355d7e0295c2cc5676c755990445da4fdc1c934836040516107a0929190610b99565b60405180910390a250565b60008054906101000a900473ffffffffffffffffffffffffffffffffffffffff1681565b600080fd5b6000819050919050565b6107e7816107d4565b81146107f257600080fd5b50565b600081359050610804816107de565b92915050565b6000602082840312156108205761081f6107cf565b5b600061082e848285016107f5565b91505092915050565b600073ffffffffffffffffffffffffffffffffffffffff82169050919050565b600061086282610837565b9050919050565b61087281610857565b82525050565b600060208201905061088d6000830184610869565b92915050565b61089c816107d4565b82525050565b60006020820190506108b76000830184610893565b92915050565b6000819050919050565b60006108e26108dd6108d884610837565b6108bd565b610837565b9050919050565b60006108f4826108c7565b9050919050565b6000610906826108e9565b9050919050565b610916816108fb565b82525050565b6000602082019050610931600083018461090d565b92915050565b600082825260208201905092915050565b7f416d6f756e74206d7573742062652067726561746572207468616e2030000000600082015250565b600061097e601d83610937565b915061098982610948565b602082019050919050565b600060208201905081810360008301526109ad81610971565b9050919050565b7f4e487b7100000000000000000000000000000000000000000000000000000000600052601160045260246000fd5b60006109ee826107d4565b91506109f9836107d4565b9250828202610a07816107d4565b91508282048414831517610a1e57610a1d6109b4565b5b5092915050565b7f4e6f7420656e6f7567682045544820696e206c69717569646974790000000000600082015250565b6000610a5b601b83610937565b9150610a6682610a25565b602082019050919050565b60006020820190508181036000830152610a8a81610a4e565b9050919050565b6000606082019050610aa66000830186610869565b610ab36020830185610869565b610ac06040830184610893565b949350505050565b60008115159050919050565b610add81610ac8565b8114610ae857600080fd5b50565b600081519050610afa81610ad4565b92915050565b600060208284031215610b1657610b156107cf565b5b6000610b2484828501610aeb565b91505092915050565b7f546f6b656e207472616e73666572206661696c65640000000000000000000000600082015250565b6000610b63601583610937565b9150610b6e82610b2d565b602082019050919050565b60006020820190508181036000830152610b9281610b56565b9050919050565b6000604082019050610bae6000830185610893565b610bbb6020830184610893565b9392505050565b7f4f6e6c79206f776e65722063616e206465706f736974206c6971756964697479600082015250565b6000610bf8602083610937565b9150610c0382610bc2565b602082019050919050565b60006020820190508181036000830152610c2781610beb565b9050919050565b7f53656e642045544820746f2062757920746f6b656e7300000000000000000000600082015250565b6000610c64601683610937565b9150610c6f82610c2e565b602082019050919050565b60006020820190508181036000830152610c9381610c57565b9050919050565b7f4e487b7100000000000000000000000000000000000000000000000000000000600052601260045260246000fd5b6000610cd4826107d4565b9150610cdf836107d4565b925082610cef57610cee610c9a565b5b828204905092915050565b7f4e6f7420656e6f756768204554482073656e7420746f2062757920746f6b656e60008201527f7300000000000000000000000000000000000000000000000000000000000000602082015250565b6000610d56602183610937565b9150610d6182610cfa565b604082019050919050565b60006020820190508181036000830152610d8581610d49565b9050919050565b600081519050610d9b816107de565b92915050565b600060208284031215610db757610db66107cf565b5b6000610dc584828501610d8c565b91505092915050565b7f4e6f7420656e6f75676820746f6b656e7320696e206c69717569646974790000600082015250565b6000610e04601e83610937565b9150610e0f82610dce565b602082019050919050565b60006020820190508181036000830152610e3381610df7565b9050919050565b6000604082019050610e4f6000830185610869565b610e5c6020830184610893565b939250505056fea26469706673582212203189f959d0c92c12074c6fa4cbce27651fa21b4a85d7504b96bb9d5a5ee0e41664736f6c63430008140033",
  "linkReferences": {},
  "deployedLinkReferences": {}
}