{
  "_format": "hh-sol-artifact-1",
  "contractName": "Exchange",
  "sourceName": "contracts/Exchange.sol",
  "abi": [
    {
      "inputs": [
        {
          "internalType": "address",
          "name": "_tokenAddress",
          "type": "address"
        },
        {
          "internalType": "uint256",
          "name": "_price",
          "type": "uint256"
        },
        {
          "internalType": "address",
          "name": "_priceFeed",
          "type": "address"
        }
      ],
      "stateMutability": "nonpayable",
      "type": "constructor"
    },
    {
      "anonymous": false,
      "inputs": [
        {
          "indexed": false,
          "internalType": "uint256",
          "name": "tokensDeposited",
          "type": "uint256"
        },
        {
          "indexed": false,
          "internalType": "uint256",
          "name": "ethDeposited",
          "type": "uint256"
        }
      ],
      "name": "LiquidityDeposited",
      "type": "event"
    },
    {
      "anonymous": false,
      "inputs": [
        {
          "indexed": false,
          "internalType": "uint256",
          "name": "newPrice",
          "type": "uint256"
        }
      ],
      "name": "PriceUpdated",
      "type": "event"
    },
    {
      "anonymous": false,
      "inputs": [
        {
          "indexed": true,
          "internalType": "address",
          "name": "buyer",
          "type": "address"
        },
        {
          "indexed": false,
          "internalType": "uint256",
          "name": "ethSpent",
          "type": "uint256"
        },
        {
          "indexed": false,
          "internalType": "uint256",
          "name": "tokensBought",
          "type": "uint256"
        }
      ],
      "name": "TokensBought",
      "type": "event"
    },
    {
      "anonymous": false,
      "inputs": [
        {
          "indexed": true,
          "internalType": "address",
          "name": "seller",
          "type": "address"
        },
        {
          "indexed": false,
          "internalType": "uint256",
          "name": "tokensSold",
          "type": "uint256"
        },
        {
          "indexed": false,
          "internalType": "uint256",
          "name": "ethReturned",
          "type": "uint256"
        }
      ],
      "name": "TokensSold",
      "type": "event"
    },
    {
      "inputs": [],
      "name": "buyTokens",
      "outputs": [],
      "stateMutability": "payable",
      "type": "function"
    },
    {
      "inputs": [
        {
          "internalType": "uint256",
          "name": "tokenAmount",
          "type": "uint256"
        }
      ],
      "name": "depositLiquidity",
      "outputs": [],
      "stateMutability": "payable",
      "type": "function"
    },
    {
      "inputs": [],
      "name": "getEthUsdPrice",
      "outputs": [
        {
          "internalType": "int256",
          "name": "",
          "type": "int256"
        }
      ],
      "stateMutability": "view",
      "type": "function"
    },
    {
      "inputs": [],
      "name": "getReserves",
      "outputs": [
        {
          "internalType": "uint256",
          "name": "tokenReserve",
          "type": "uint256"
        },
        {
          "internalType": "uint256",
          "name": "ethReserve",
          "type": "uint256"
        }
      ],
      "stateMutability": "view",
      "type": "function"
    },
    {
      "inputs": [],
      "name": "getTokenPrice",
      "outputs": [
        {
          "internalType": "uint256",
          "name": "",
          "type": "uint256"
        }
      ],
      "stateMutability": "view",
      "type": "function"
    },
    {
      "inputs": [],
      "name": "owner",
      "outputs": [
        {
          "internalType": "address",
          "name": "",
          "type": "address"
        }
      ],
      "stateMutability": "view",
      "type": "function"
    },
    {
      "inputs": [],
      "name": "price",
      "outputs": [
        {
          "internalType": "uint256",
          "name": "",
          "type": "uint256"
        }
      ],
      "stateMutability": "view",
      "type": "function"
    },
    {
      "inputs": [
        {
          "internalType": "uint256",
          "name": "tokensToSell",
          "type": "uint256"
        }
      ],
      "name": "sellTokens",
      "outputs": [],
      "stateMutability": "nonpayable",
      "type": "function"
    },
    {
      "inputs": [],
      "name": "token",
      "outputs": [
        {
          "internalType": "contract Token",
          "name": "",
          "type": "address"
        }
      ],
      "stateMutability": "view",
      "type": "function"
    },
    {
      "inputs": [
        {
          "internalType": "uint256",
          "name": "newPrice",
          "type": "uint256"
        }
      ],
      "name": "updatePrice",
      "outputs": [],
      "stateMutability": "nonpayable",
      "type": "function"
    },
    {
      "stateMutability": "payable",
      "type": "receive"
    }
  ],
  "bytecode": "0x60806040523480156200001157600080fd5b5060405162001977380380620019778339818101604052810190620000379190620001ae565b826000806101000a81548173ffffffffffffffffffffffffffffffffffffffff021916908373ffffffffffffffffffffffffffffffffffffffff16021790555033600160006101000a81548173ffffffffffffffffffffffffffffffffffffffff021916908373ffffffffffffffffffffffffffffffffffffffff1602179055508160028190555080600360006101000a81548173ffffffffffffffffffffffffffffffffffffffff021916908373ffffffffffffffffffffffffffffffffffffffff1602179055505050506200020a565b600080fd5b600073ffffffffffffffffffffffffffffffffffffffff82169050919050565b60006200013b826200010e565b9050919050565b6200014d816200012e565b81146200015957600080fd5b50565b6000815190506200016d8162000142565b92915050565b6000819050919050565b620001888162000173565b81146200019457600080fd5b50565b600081519050620001a8816200017d565b92915050565b600080600060608486031215620001ca57620001c962000109565b5b6000620001da868287016200015c565b9350506020620001ed8682870162000197565b925050604062000200868287016200015c565b9150509250925092565b61175d806200021a6000396000f3fe6080604052600436106100955760003560e01c80638da5cb5b116100595780638da5cb5b14610166578063a035b1fe14610191578063a0a8045e146101bc578063d0febe4c146101e7578063fc0c546a146101f15761009c565b80630902f1ac146100a15780634b94f50e146100cd5780636c11bcd3146100f857806376d58e1a146101215780638d6cc56d1461013d5761009c565b3661009c57005b600080fd5b3480156100ad57600080fd5b506100b661021c565b6040516100c4929190610d3f565b60405180910390f35b3480156100d957600080fd5b506100e26102c2565b6040516100ef9190610d68565b60405180910390f35b34801561010457600080fd5b5061011f600480360381019061011a9190610db4565b610389565b005b61013b60048036038101906101369190610db4565b610647565b005b34801561014957600080fd5b50610164600480360381019061015f9190610db4565b610814565b005b34801561017257600080fd5b5061017b6108e5565b6040516101889190610e22565b60405180910390f35b34801561019d57600080fd5b506101a661090b565b6040516101b39190610d68565b60405180910390f35b3480156101c857600080fd5b506101d1610911565b6040516101de9190610e56565b60405180910390f35b6101ef6109b2565b005b3480156101fd57600080fd5b50610206610d02565b6040516102139190610ed0565b60405180910390f35b60008060008054906101000a900473ffffffffffffffffffffffffffffffffffffffff1673ffffffffffffffffffffffffffffffffffffffff166370a08231306040518263ffffffff1660e01b81526004016102789190610e22565b602060405180830381865afa158015610295573d6000803e3d6000fd5b505050506040513d601f19601f820116820180604052508101906102b99190610f00565b91504790509091565b60008060008054906101000a900473ffffffffffffffffffffffffffffffffffffffff1673ffffffffffffffffffffffffffffffffffffffff1663313ce5676040518163ffffffff1660e01b8152600401602060405180830381865afa158015610330573d6000803e3d6000fd5b505050506040513d601f19601f820116820180604052508101906103549190610f66565b600a61036091906110f5565b905080670de0b6b3a76400006002546103799190611140565b61038391906111b1565b91505090565b600081116103cc576040517f08c379a00000000000000000000000000000000000000000000000000000000081526004016103c39061123f565b60405180910390fd5b60008060009054906101000a900473ffffffffffffffffffffffffffffffffffffffff1673ffffffffffffffffffffffffffffffffffffffff1663313ce5676040518163ffffffff1660e01b8152600401602060405180830381865afa15801561043a573d6000803e3d6000fd5b505050506040513d601f19601f8201168201806040525081019061045e9190610f66565b600a61046a91906110f5565b90506000816002548461047d9190611140565b61048791906111b1565b9050804710156104cc576040517f08c379a00000000000000000000000000000000000000000000000000000000081526004016104c3906112ab565b60405180910390fd5b60008054906101000a900473ffffffffffffffffffffffffffffffffffffffff1673ffffffffffffffffffffffffffffffffffffffff166323b872dd3330866040518463ffffffff1660e01b8152600401610529939291906112cb565b6020604051808303816000875af1158015610548573d6000803e3d6000fd5b505050506040513d601f19601f8201168201806040525081019061056c919061133a565b6105ab576040517f08c379a00000000000000000000000000000000000000000000000000000000081526004016105a2906113b3565b60405180910390fd5b3373ffffffffffffffffffffffffffffffffffffffff166108fc829081150290604051600060405180830381858888f193505050501580156105f1573d6000803e3d6000fd5b503373ffffffffffffffffffffffffffffffffffffffff167f2dcf9433d75db0d8b1c172641f85e319ffe4ad22e108a95d1847ceb906e5195d848360405161063a929190610d3f565b60405180910390a2505050565b600160009054906101000a900473ffffffffffffffffffffffffffffffffffffffff1673ffffffffffffffffffffffffffffffffffffffff163373ffffffffffffffffffffffffffffffffffffffff16146106d7576040517f08c379a00000000000000000000000000000000000000000000000000000000081526004016106ce9061141f565b60405180910390fd5b60008054906101000a900473ffffffffffffffffffffffffffffffffffffffff1673ffffffffffffffffffffffffffffffffffffffff166323b872dd600160009054906101000a900473ffffffffffffffffffffffffffffffffffffffff1630846040518463ffffffff1660e01b8152600401610756939291906112cb565b6020604051808303816000875af1158015610775573d6000803e3d6000fd5b505050506040513d601f19601f82011682018060405250810190610799919061133a565b6107d8576040517f08c379a00000000000000000000000000000000000000000000000000000000081526004016107cf906113b3565b60405180910390fd5b7f9c86429231ed0411e3112a1dd5c6578826c2d48089d5ec491e874ce0029c0bbe8134604051610809929190610d3f565b60405180910390a150565b600160009054906101000a900473ffffffffffffffffffffffffffffffffffffffff1673ffffffffffffffffffffffffffffffffffffffff163373ffffffffffffffffffffffffffffffffffffffff16146108a4576040517f08c379a000000000000000000000000000000000000000000000000000000000815260040161089b9061148b565b60405180910390fd5b806002819055507f66cbca4f3c64fecf1dcb9ce094abcf7f68c3450a1d4e3a8e917dd621edb4ebe0816040516108da9190610d68565b60405180910390a150565b600160009054906101000a900473ffffffffffffffffffffffffffffffffffffffff1681565b60025481565b600080600360009054906101000a900473ffffffffffffffffffffffffffffffffffffffff1673ffffffffffffffffffffffffffffffffffffffff1663feaf968c6040518163ffffffff1660e01b815260040160a060405180830381865afa158015610981573d6000803e3d6000fd5b505050506040513d601f19601f820116820180604052508101906109a59190611519565b5050509150508091505090565b600034116109f5576040517f08c379a00000000000000000000000000000000000000000000000000000000081526004016109ec906115e0565b60405180910390fd5b60008060009054906101000a900473ffffffffffffffffffffffffffffffffffffffff1673ffffffffffffffffffffffffffffffffffffffff1663313ce5676040518163ffffffff1660e01b8152600401602060405180830381865afa158015610a63573d6000803e3d6000fd5b505050506040513d601f19601f82011682018060405250810190610a879190610f66565b600a610a9391906110f5565b905060006002548234610aa69190611140565b610ab091906111b1565b905060008111610af5576040517f08c379a0000000000000000000000000000000000000000000000000000000008152600401610aec90611672565b60405180910390fd5b8060008054906101000a900473ffffffffffffffffffffffffffffffffffffffff1673ffffffffffffffffffffffffffffffffffffffff166370a08231306040518263ffffffff1660e01b8152600401610b4f9190610e22565b602060405180830381865afa158015610b6c573d6000803e3d6000fd5b505050506040513d601f19601f82011682018060405250810190610b909190610f00565b1015610bd1576040517f08c379a0000000000000000000000000000000000000000000000000000000008152600401610bc8906116de565b60405180910390fd5b60008054906101000a900473ffffffffffffffffffffffffffffffffffffffff1673ffffffffffffffffffffffffffffffffffffffff1663a9059cbb33836040518363ffffffff1660e01b8152600401610c2c9291906116fe565b6020604051808303816000875af1158015610c4b573d6000803e3d6000fd5b505050506040513d601f19601f82011682018060405250810190610c6f919061133a565b610cae576040517f08c379a0000000000000000000000000000000000000000000000000000000008152600401610ca5906113b3565b60405180910390fd5b3373ffffffffffffffffffffffffffffffffffffffff167f8442948036198f1146d3a63c3db355d7e0295c2cc5676c755990445da4fdc1c93483604051610cf6929190610d3f565b60405180910390a25050565b60008054906101000a900473ffffffffffffffffffffffffffffffffffffffff1681565b6000819050919050565b610d3981610d26565b82525050565b6000604082019050610d546000830185610d30565b610d616020830184610d30565b9392505050565b6000602082019050610d7d6000830184610d30565b92915050565b600080fd5b610d9181610d26565b8114610d9c57600080fd5b50565b600081359050610dae81610d88565b92915050565b600060208284031215610dca57610dc9610d83565b5b6000610dd884828501610d9f565b91505092915050565b600073ffffffffffffffffffffffffffffffffffffffff82169050919050565b6000610e0c82610de1565b9050919050565b610e1c81610e01565b82525050565b6000602082019050610e376000830184610e13565b92915050565b6000819050919050565b610e5081610e3d565b82525050565b6000602082019050610e6b6000830184610e47565b92915050565b6000819050919050565b6000610e96610e91610e8c84610de1565b610e71565b610de1565b9050919050565b6000610ea882610e7b565b9050919050565b6000610eba82610e9d565b9050919050565b610eca81610eaf565b82525050565b6000602082019050610ee56000830184610ec1565b92915050565b600081519050610efa81610d88565b92915050565b600060208284031215610f1657610f15610d83565b5b6000610f2484828501610eeb565b91505092915050565b600060ff82169050919050565b610f4381610f2d565b8114610f4e57600080fd5b50565b600081519050610f6081610f3a565b92915050565b600060208284031215610f7c57610f7b610d83565b5b6000610f8a84828501610f51565b91505092915050565b7f4e487b7100000000000000000000000000000000000000000000000000000000600052601160045260246000fd5b60008160011c9050919050565b6000808291508390505b600185111561101957808604811115610ff557610ff4610f93565b5b60018516156110045780820291505b808102905061101285610fc2565b9450610fd9565b94509492505050565b60008261103257600190506110ee565b8161104057600090506110ee565b816001811461105657600281146110605761108f565b60019150506110ee565b60ff84111561107257611071610f93565b5b8360020a91508482111561108957611088610f93565b5b506110ee565b5060208310610133831016604e8410600b84101617156110c45782820a9050838111156110bf576110be610f93565b5b6110ee565b6110d18484846001610fcf565b925090508184048111156110e8576110e7610f93565b5b81810290505b9392505050565b600061110082610d26565b915061110b83610f2d565b92506111387fffffffffffffffffffffffffffffffffffffffffffffffffffffffffffffffff8484611022565b905092915050565b600061114b82610d26565b915061115683610d26565b925082820261116481610d26565b9150828204841483151761117b5761117a610f93565b5b5092915050565b7f4e487b7100000000000000000000000000000000000000000000000000000000600052601260045260246000fd5b60006111bc82610d26565b91506111c783610d26565b9250826111d7576111d6611182565b5b828204905092915050565b600082825260208201905092915050565b7f416d6f756e74206d7573742062652067726561746572207468616e2030000000600082015250565b6000611229601d836111e2565b9150611234826111f3565b602082019050919050565b600060208201905081810360008301526112588161121c565b9050919050565b7f4e6f7420656e6f7567682045544820696e206c69717569646974790000000000600082015250565b6000611295601b836111e2565b91506112a08261125f565b602082019050919050565b600060208201905081810360008301526112c481611288565b9050919050565b60006060820190506112e06000830186610e13565b6112ed6020830185610e13565b6112fa6040830184610d30565b949350505050565b60008115159050919050565b61131781611302565b811461132257600080fd5b50565b6000815190506113348161130e565b92915050565b6000602082840312156113505761134f610d83565b5b600061135e84828501611325565b91505092915050565b7f546f6b656e207472616e73666572206661696c65640000000000000000000000600082015250565b600061139d6015836111e2565b91506113a882611367565b602082019050919050565b600060208201905081810360008301526113cc81611390565b9050919050565b7f4f6e6c79206f776e65722063616e206465706f736974206c6971756964697479600082015250565b60006114096020836111e2565b9150611414826113d3565b602082019050919050565b60006020820190508181036000830152611438816113fc565b9050919050565b7f4f6e6c79206f776e65722063616e207570646174652070726963650000000000600082015250565b6000611475601b836111e2565b91506114808261143f565b602082019050919050565b600060208201905081810360008301526114a481611468565b9050919050565b600069ffffffffffffffffffff82169050919050565b6114ca816114ab565b81146114d557600080fd5b50565b6000815190506114e7816114c1565b92915050565b6114f681610e3d565b811461150157600080fd5b50565b600081519050611513816114ed565b92915050565b600080600080600060a0868803121561153557611534610d83565b5b6000611543888289016114d8565b955050602061155488828901611504565b945050604061156588828901610eeb565b935050606061157688828901610eeb565b9250506080611587888289016114d8565b9150509295509295909350565b7f53656e642045544820746f2062757920746f6b656e7300000000000000000000600082015250565b60006115ca6016836111e2565b91506115d582611594565b602082019050919050565b600060208201905081810360008301526115f9816115bd565b9050919050565b7f4e6f7420656e6f756768204554482073656e7420746f2062757920746f6b656e60008201527f7300000000000000000000000000000000000000000000000000000000000000602082015250565b600061165c6021836111e2565b915061166782611600565b604082019050919050565b6000602082019050818103600083015261168b8161164f565b9050919050565b7f4e6f7420656e6f75676820746f6b656e7320696e206c69717569646974790000600082015250565b60006116c8601e836111e2565b91506116d382611692565b602082019050919050565b600060208201905081810360008301526116f7816116bb565b9050919050565b60006040820190506117136000830185610e13565b6117206020830184610d30565b939250505056fea2646970667358221220496ff0d93aacc939fba3bec3b4c22e651d60ea47af237dc42782835dc0226f4c64736f6c63430008140033",
  "linkReferences": {},
  "deployedLinkReferences": {}
}