{
  "_format": "hh-sol-artifact-1",
  "contractName": "NFTMarket",
  "sourceName": "contracts/NFTMarket.sol",
  "abi": [
    {
      "inputs": [
        {
          "internalType": "address",
          "name": "tokenAddress",
          "type": "address"
        },
        {
          "internalType": "uint256",
          "name": "_listingFee",
          "type": "uint256"
        }
      ],
      "stateMutability": "nonpayable",
      "type": "constructor"
    },
    {
      "inputs": [],
      "name": "ReentrancyGuardReentrantCall",
      "type": "error"
    },
    {
      "anonymous": false,
      "inputs": [
        {
          "indexed": true,
          "internalType": "uint256",
          "name": "itemId",
          "type": "uint256"
        },
        {
          "indexed": true,
          "internalType": "address",
          "name": "nftContract",
          "type": "address"
        },
        {
          "indexed": false,
          "internalType": "uint256",
          "name": "tokenId",
          "type": "uint256"
        },
        {
          "indexed": false,
          "internalType": "address",
          "name": "seller",
          "type": "address"
        },
        {
          "indexed": false,
          "internalType": "address",
          "name": "owner",
          "type": "address"
        },
        {
          "indexed": false,
          "internalType": "uint256",
          "name": "price",
          "type": "uint256"
        },
        {
          "indexed": false,
          "internalType": "bool",
          "name": "sold",
          "type": "bool"
        }
      ],
      "name": "MarketItemCreated",
      "type": "event"
    },
    {
      "anonymous": false,
      "inputs": [
        {
          "indexed": true,
          "internalType": "uint256",
          "name": "itemId",
          "type": "uint256"
        },
        {
          "indexed": true,
          "internalType": "address",
          "name": "nftContract",
          "type": "address"
        },
        {
          "indexed": false,
          "internalType": "uint256",
          "name": "tokenId",
          "type": "uint256"
        },
        {
          "indexed": false,
          "internalType": "address",
          "name": "seller",
          "type": "address"
        },
        {
          "indexed": false,
          "internalType": "address",
          "name": "buyer",
          "type": "address"
        },
        {
          "indexed": false,
          "internalType": "uint256",
          "name": "price",
          "type": "uint256"
        }
      ],
      "name": "MarketItemSold",
      "type": "event"
    },
    {
      "inputs": [
        {
          "internalType": "address",
          "name": "nftContract",
          "type": "address"
        },
        {
          "internalType": "uint256",
          "name": "tokenId",
          "type": "uint256"
        },
        {
          "internalType": "uint256",
          "name": "price",
          "type": "uint256"
        }
      ],
      "name": "createMarketItem",
      "outputs": [],
      "stateMutability": "nonpayable",
      "type": "function"
    },
    {
      "inputs": [],
      "name": "fetchActiveMarketItems",
      "outputs": [
        {
          "components": [
            {
              "internalType": "uint256",
              "name": "itemId",
              "type": "uint256"
            },
            {
              "internalType": "address",
              "name": "nftContract",
              "type": "address"
            },
            {
              "internalType": "uint256",
              "name": "tokenId",
              "type": "uint256"
            },
            {
              "internalType": "address payable",
              "name": "seller",
              "type": "address"
            },
            {
              "internalType": "address payable",
              "name": "owner",
              "type": "address"
            },
            {
              "internalType": "uint256",
              "name": "price",
              "type": "uint256"
            },
            {
              "internalType": "bool",
              "name": "sold",
              "type": "bool"
            }
          ],
          "internalType": "struct NFTMarket.Marketitem[]",
          "name": "",
          "type": "tuple[]"
        }
      ],
      "stateMutability": "view",
      "type": "function"
    },
    {
      "inputs": [],
      "name": "listingFee",
      "outputs": [
        {
          "internalType": "uint256",
          "name": "",
          "type": "uint256"
        }
      ],
      "stateMutability": "view",
      "type": "function"
    },
    {
      "inputs": [],
      "name": "owner",
      "outputs": [
        {
          "internalType": "address payable",
          "name": "",
          "type": "address"
        }
      ],
      "stateMutability": "view",
      "type": "function"
    },
    {
      "inputs": [],
      "name": "paymentToken",
      "outputs": [
        {
          "internalType": "contract IERC20",
          "name": "",
          "type": "address"
        }
      ],
      "stateMutability": "view",
      "type": "function"
    },
    {
      "inputs": [
        {
          "internalType": "uint256",
          "name": "itemId",
          "type": "uint256"
        }
      ],
      "name": "purchaseMarketItem",
      "outputs": [],
      "stateMutability": "nonpayable",
      "type": "function"
    }
  ],
  "bytecode": "0x60806040523480156200001157600080fd5b50604051620018e4380380620018e4833981810160405281019062000037919062000175565b600160008190555033600360006101000a81548173ffffffffffffffffffffffffffffffffffffffff021916908373ffffffffffffffffffffffffffffffffffffffff16021790555081600560006101000a81548173ffffffffffffffffffffffffffffffffffffffff021916908373ffffffffffffffffffffffffffffffffffffffff160217905550806004819055505050620001bc565b600080fd5b600073ffffffffffffffffffffffffffffffffffffffff82169050919050565b60006200010282620000d5565b9050919050565b6200011481620000f5565b81146200012057600080fd5b50565b600081519050620001348162000109565b92915050565b6000819050919050565b6200014f816200013a565b81146200015b57600080fd5b50565b6000815190506200016f8162000144565b92915050565b600080604083850312156200018f576200018e620000d0565b5b60006200019f8582860162000123565b9250506020620001b2858286016200015e565b9150509250929050565b61171880620001cc6000396000f3fe608060405234801561001057600080fd5b50600436106100625760003560e01c806311acf286146100675780633013ce291461008557806358eb2df5146100a35780636a1b7ecc146100bf5780638c77b5b7146100dd5780638da5cb5b146100f9575b600080fd5b61006f610117565b60405161007c9190610fa1565b60405180910390f35b61008d610494565b60405161009a9190611022565b60405180910390f35b6100bd60048036038101906100b8919061109a565b6104ba565b005b6100c7610912565b6040516100d491906110fc565b60405180910390f35b6100f760048036038101906100f29190611117565b610918565b005b610101610cb3565b60405161010e9190611153565b60405180910390f35b606060006101256001610cd9565b9050600080600190505b8281116101f0576006600082815260200190815260200160002060060160009054906101000a900460ff161580156101c95750600073ffffffffffffffffffffffffffffffffffffffff166006600083815260200190815260200160002060040160009054906101000a900473ffffffffffffffffffffffffffffffffffffffff1673ffffffffffffffffffffffffffffffffffffffff16145b156101dd5781806101d99061119d565b9250505b80806101e89061119d565b91505061012f565b5060008167ffffffffffffffff81111561020d5761020c6111e5565b5b60405190808252806020026020018201604052801561024657816020015b610233610d4d565b81526020019060019003908161022b5790505b509050600080600190505b848111610489576006600082815260200190815260200160002060060160009054906101000a900460ff161580156102eb5750600073ffffffffffffffffffffffffffffffffffffffff166006600083815260200190815260200160002060040160009054906101000a900473ffffffffffffffffffffffffffffffffffffffff1673ffffffffffffffffffffffffffffffffffffffff16145b1561047657600660008281526020019081526020016000206040518060e0016040529081600082015481526020016001820160009054906101000a900473ffffffffffffffffffffffffffffffffffffffff1673ffffffffffffffffffffffffffffffffffffffff1673ffffffffffffffffffffffffffffffffffffffff168152602001600282015481526020016003820160009054906101000a900473ffffffffffffffffffffffffffffffffffffffff1673ffffffffffffffffffffffffffffffffffffffff1673ffffffffffffffffffffffffffffffffffffffff1681526020016004820160009054906101000a900473ffffffffffffffffffffffffffffffffffffffff1673ffffffffffffffffffffffffffffffffffffffff1673ffffffffffffffffffffffffffffffffffffffff168152602001600582015481526020016006820160009054906101000a900460ff16151515158152505083838151811061045c5761045b611214565b5b602002602001018190525081806104729061119d565b9250505b80806104819061119d565b915050610251565b508194505050505090565b600560009054906101000a900473ffffffffffffffffffffffffffffffffffffffff1681565b6104c2610ce7565b60008111610505576040517f08c379a00000000000000000000000000000000000000000000000000000000081526004016104fc906112a0565b60405180910390fd5b600560009054906101000a900473ffffffffffffffffffffffffffffffffffffffff1673ffffffffffffffffffffffffffffffffffffffff166323b872dd33600360009054906101000a900473ffffffffffffffffffffffffffffffffffffffff166004546040518463ffffffff1660e01b8152600401610588939291906112f0565b6020604051808303816000875af11580156105a7573d6000803e3d6000fd5b505050506040513d601f19601f820116820180604052508101906105cb9190611353565b61060a576040517f08c379a0000000000000000000000000000000000000000000000000000000008152600401610601906113cc565b60405180910390fd5b3073ffffffffffffffffffffffffffffffffffffffff168373ffffffffffffffffffffffffffffffffffffffff1663081812fc846040518263ffffffff1660e01b815260040161065a91906110fc565b602060405180830381865afa158015610677573d6000803e3d6000fd5b505050506040513d601f19601f8201168201806040525081019061069b9190611401565b73ffffffffffffffffffffffffffffffffffffffff16146106f1576040517f08c379a00000000000000000000000000000000000000000000000000000000081526004016106e8906114a0565b60405180910390fd5b6106fb6001610d2d565b60006107076001610cd9565b90506040518060e001604052808281526020018573ffffffffffffffffffffffffffffffffffffffff1681526020018481526020013373ffffffffffffffffffffffffffffffffffffffff168152602001600073ffffffffffffffffffffffffffffffffffffffff16815260200183815260200160001515815250600660008381526020019081526020016000206000820151816000015560208201518160010160006101000a81548173ffffffffffffffffffffffffffffffffffffffff021916908373ffffffffffffffffffffffffffffffffffffffff1602179055506040820151816002015560608201518160030160006101000a81548173ffffffffffffffffffffffffffffffffffffffff021916908373ffffffffffffffffffffffffffffffffffffffff16021790555060808201518160040160006101000a81548173ffffffffffffffffffffffffffffffffffffffff021916908373ffffffffffffffffffffffffffffffffffffffff16021790555060a0820151816005015560c08201518160060160006101000a81548160ff0219169083151502179055509050508373ffffffffffffffffffffffffffffffffffffffff16817f045dfa01dcba2b36aba1d3dc4a874f4b0c5d2fbeb8d2c4b34a7d88c8d8f929d1853360008760006040516108fc9594939291906114cf565b60405180910390a35061090d610d43565b505050565b60045481565b610920610ce7565b6000600660008381526020019081526020016000209050600081600001541161097e576040517f08c379a00000000000000000000000000000000000000000000000000000000081526004016109759061156e565b60405180910390fd5b8060060160009054906101000a900460ff16156109d0576040517f08c379a00000000000000000000000000000000000000000000000000000000081526004016109c7906115da565b60405180910390fd5b600560009054906101000a900473ffffffffffffffffffffffffffffffffffffffff1673ffffffffffffffffffffffffffffffffffffffff166323b872dd338360030160009054906101000a900473ffffffffffffffffffffffffffffffffffffffff1684600501546040518463ffffffff1660e01b8152600401610a57939291906112f0565b6020604051808303816000875af1158015610a76573d6000803e3d6000fd5b505050506040513d601f19601f82011682018060405250810190610a9a9190611353565b610ad9576040517f08c379a0000000000000000000000000000000000000000000000000000000008152600401610ad090611646565b60405180910390fd5b8060010160009054906101000a900473ffffffffffffffffffffffffffffffffffffffff1673ffffffffffffffffffffffffffffffffffffffff166323b872dd8260030160009054906101000a900473ffffffffffffffffffffffffffffffffffffffff163384600201546040518463ffffffff1660e01b8152600401610b6293929190611666565b600060405180830381600087803b158015610b7c57600080fd5b505af1158015610b90573d6000803e3d6000fd5b50505050338160040160006101000a81548173ffffffffffffffffffffffffffffffffffffffff021916908373ffffffffffffffffffffffffffffffffffffffff16021790555060018160060160006101000a81548160ff021916908315150217905550610bfe6002610d2d565b8060010160009054906101000a900473ffffffffffffffffffffffffffffffffffffffff1673ffffffffffffffffffffffffffffffffffffffff1681600001547f6a5f9d2b6ff1f375ebe095556dc91e68fce80a6187d7527cce81c3ab02726c9c83600201548460030160009054906101000a900473ffffffffffffffffffffffffffffffffffffffff16338660050154604051610c9f949392919061169d565b60405180910390a350610cb0610d43565b50565b600360009054906101000a900473ffffffffffffffffffffffffffffffffffffffff1681565b600081600001549050919050565b600260005403610d23576040517f3ee5aeb500000000000000000000000000000000000000000000000000000000815260040160405180910390fd5b6002600081905550565b6001816000016000828254019250508190555050565b6001600081905550565b6040518060e0016040528060008152602001600073ffffffffffffffffffffffffffffffffffffffff16815260200160008152602001600073ffffffffffffffffffffffffffffffffffffffff168152602001600073ffffffffffffffffffffffffffffffffffffffff168152602001600081526020016000151581525090565b600081519050919050565b600082825260208201905092915050565b6000819050602082019050919050565b6000819050919050565b610e0d81610dfa565b82525050565b600073ffffffffffffffffffffffffffffffffffffffff82169050919050565b6000610e3e82610e13565b9050919050565b610e4e81610e33565b82525050565b6000610e5f82610e13565b9050919050565b610e6f81610e54565b82525050565b60008115159050919050565b610e8a81610e75565b82525050565b60e082016000820151610ea66000850182610e04565b506020820151610eb96020850182610e45565b506040820151610ecc6040850182610e04565b506060820151610edf6060850182610e66565b506080820151610ef26080850182610e66565b5060a0820151610f0560a0850182610e04565b5060c0820151610f1860c0850182610e81565b50505050565b6000610f2a8383610e90565b60e08301905092915050565b6000602082019050919050565b6000610f4e82610dce565b610f588185610dd9565b9350610f6383610dea565b8060005b83811015610f94578151610f7b8882610f1e565b9750610f8683610f36565b925050600181019050610f67565b5085935050505092915050565b60006020820190508181036000830152610fbb8184610f43565b905092915050565b6000819050919050565b6000610fe8610fe3610fde84610e13565b610fc3565b610e13565b9050919050565b6000610ffa82610fcd565b9050919050565b600061100c82610fef565b9050919050565b61101c81611001565b82525050565b60006020820190506110376000830184611013565b92915050565b600080fd5b61104b81610e33565b811461105657600080fd5b50565b60008135905061106881611042565b92915050565b61107781610dfa565b811461108257600080fd5b50565b6000813590506110948161106e565b92915050565b6000806000606084860312156110b3576110b261103d565b5b60006110c186828701611059565b93505060206110d286828701611085565b92505060406110e386828701611085565b9150509250925092565b6110f681610dfa565b82525050565b600060208201905061111160008301846110ed565b92915050565b60006020828403121561112d5761112c61103d565b5b600061113b84828501611085565b91505092915050565b61114d81610e54565b82525050565b60006020820190506111686000830184611144565b92915050565b7f4e487b7100000000000000000000000000000000000000000000000000000000600052601160045260246000fd5b60006111a882610dfa565b91507fffffffffffffffffffffffffffffffffffffffffffffffffffffffffffffffff82036111da576111d961116e565b5b600182019050919050565b7f4e487b7100000000000000000000000000000000000000000000000000000000600052604160045260246000fd5b7f4e487b7100000000000000000000000000000000000000000000000000000000600052603260045260246000fd5b600082825260208201905092915050565b7f5072696365206d7573742062652067726561746572207468616e207a65726f00600082015250565b600061128a601f83611243565b915061129582611254565b602082019050919050565b600060208201905081810360008301526112b98161127d565b9050919050565b6112c981610e33565b82525050565b60006112da82610fef565b9050919050565b6112ea816112cf565b82525050565b600060608201905061130560008301866112c0565b61131260208301856112e1565b61131f60408301846110ed565b949350505050565b61133081610e75565b811461133b57600080fd5b50565b60008151905061134d81611327565b92915050565b6000602082840312156113695761136861103d565b5b60006113778482850161133e565b91505092915050565b7f4c697374696e6720666565207472616e73666572206661696c65640000000000600082015250565b60006113b6601b83611243565b91506113c182611380565b602082019050919050565b600060208201905081810360008301526113e5816113a9565b9050919050565b6000815190506113fb81611042565b92915050565b6000602082840312156114175761141661103d565b5b6000611425848285016113ec565b91505092915050565b7f4d61726b6574706c616365206973206e6f7420617070726f76656420746f206d60008201527f616e6167652074686973204e4654000000000000000000000000000000000000602082015250565b600061148a602e83611243565b91506114958261142e565b604082019050919050565b600060208201905081810360008301526114b98161147d565b9050919050565b6114c981610e75565b82525050565b600060a0820190506114e460008301886110ed565b6114f160208301876112c0565b6114fe60408301866112c0565b61150b60608301856110ed565b61151860808301846114c0565b9695505050505050565b7f4974656d20646f6573206e6f7420657869737400000000000000000000000000600082015250565b6000611558601383611243565b915061156382611522565b602082019050919050565b600060208201905081810360008301526115878161154b565b9050919050565b7f4974656d20616c726561647920736f6c64000000000000000000000000000000600082015250565b60006115c4601183611243565b91506115cf8261158e565b602082019050919050565b600060208201905081810360008301526115f3816115b7565b9050919050565b7f5061796d656e74206661696c6564000000000000000000000000000000000000600082015250565b6000611630600e83611243565b915061163b826115fa565b602082019050919050565b6000602082019050818103600083015261165f81611623565b9050919050565b600060608201905061167b60008301866112e1565b61168860208301856112c0565b61169560408301846110ed565b949350505050565b60006080820190506116b260008301876110ed565b6116bf60208301866112e1565b6116cc60408301856112c0565b6116d960608301846110ed565b9594505050505056fea264697066735822122036d3e5e093880b7027df9725ce59f7aab38dac3a63db209fd560029bd7d7db8764736f6c63430008140033",
  "linkReferences": {},
  "deployedLinkReferences": {}
}