{
  "_format": "hh-sol-artifact-1",
  "contractName": "NFTMarket",
  "sourceName": "contracts/NFTMarket.sol",
  "abi": [
    {
      "inputs": [
        {
          "internalType": "address",
          "name": "tokenAddress",
          "type": "address"
        },
        {
          "internalType": "uint256",
          "name": "_listingFee",
          "type": "uint256"
        }
      ],
      "stateMutability": "nonpayable",
      "type": "constructor"
    },
    {
      "inputs": [],
      "name": "ReentrancyGuardReentrantCall",
      "type": "error"
    },
    {
      "anonymous": false,
      "inputs": [
        {
          "indexed": true,
          "internalType": "uint256",
          "name": "itemId",
          "type": "uint256"
        },
        {
          "indexed": true,
          "internalType": "address",
          "name": "seller",
          "type": "address"
        }
      ],
      "name": "MarketItemCancelled",
      "type": "event"
    },
    {
      "anonymous": false,
      "inputs": [
        {
          "indexed": true,
          "internalType": "uint256",
          "name": "itemId",
          "type": "uint256"
        },
        {
          "indexed": true,
          "internalType": "address",
          "name": "nftContract",
          "type": "address"
        },
        {
          "indexed": false,
          "internalType": "uint256",
          "name": "tokenId",
          "type": "uint256"
        },
        {
          "indexed": false,
          "internalType": "address",
          "name": "seller",
          "type": "address"
        },
        {
          "indexed": false,
          "internalType": "address",
          "name": "owner",
          "type": "address"
        },
        {
          "indexed": false,
          "internalType": "uint256",
          "name": "price",
          "type": "uint256"
        },
        {
          "indexed": false,
          "internalType": "bool",
          "name": "sold",
          "type": "bool"
        }
      ],
      "name": "MarketItemCreated",
      "type": "event"
    },
    {
      "anonymous": false,
      "inputs": [
        {
          "indexed": true,
          "internalType": "uint256",
          "name": "itemId",
          "type": "uint256"
        },
        {
          "indexed": true,
          "internalType": "address",
          "name": "nftContract",
          "type": "address"
        },
        {
          "indexed": false,
          "internalType": "uint256",
          "name": "tokenId",
          "type": "uint256"
        },
        {
          "indexed": false,
          "internalType": "address",
          "name": "seller",
          "type": "address"
        },
        {
          "indexed": false,
          "internalType": "address",
          "name": "buyer",
          "type": "address"
        },
        {
          "indexed": false,
          "internalType": "uint256",
          "name": "price",
          "type": "uint256"
        }
      ],
      "name": "MarketItemSold",
      "type": "event"
    },
    {
      "inputs": [
        {
          "internalType": "uint256",
          "name": "itemId",
          "type": "uint256"
        }
      ],
      "name": "cancelMarketItem",
      "outputs": [],
      "stateMutability": "nonpayable",
      "type": "function"
    },
    {
      "inputs": [
        {
          "internalType": "address",
          "name": "nftContract",
          "type": "address"
        },
        {
          "internalType": "uint256",
          "name": "tokenId",
          "type": "uint256"
        },
        {
          "internalType": "uint256",
          "name": "price",
          "type": "uint256"
        }
      ],
      "name": "createMarketItem",
      "outputs": [],
      "stateMutability": "nonpayable",
      "type": "function"
    },
    {
      "inputs": [],
      "name": "fetchActiveMarketItems",
      "outputs": [
        {
          "components": [
            {
              "internalType": "uint256",
              "name": "itemId",
              "type": "uint256"
            },
            {
              "internalType": "address",
              "name": "nftContract",
              "type": "address"
            },
            {
              "internalType": "uint256",
              "name": "tokenId",
              "type": "uint256"
            },
            {
              "internalType": "address payable",
              "name": "seller",
              "type": "address"
            },
            {
              "internalType": "address payable",
              "name": "owner",
              "type": "address"
            },
            {
              "internalType": "uint256",
              "name": "price",
              "type": "uint256"
            },
            {
              "internalType": "bool",
              "name": "sold",
              "type": "bool"
            }
          ],
          "internalType": "struct NFTMarket.Marketitem[]",
          "name": "",
          "type": "tuple[]"
        }
      ],
      "stateMutability": "view",
      "type": "function"
    },
    {
      "inputs": [],
      "name": "listingFee",
      "outputs": [
        {
          "internalType": "uint256",
          "name": "",
          "type": "uint256"
        }
      ],
      "stateMutability": "view",
      "type": "function"
    },
    {
      "inputs": [],
      "name": "owner",
      "outputs": [
        {
          "internalType": "address payable",
          "name": "",
          "type": "address"
        }
      ],
      "stateMutability": "view",
      "type": "function"
    },
    {
      "inputs": [],
      "name": "paymentToken",
      "outputs": [
        {
          "internalType": "contract IERC20",
          "name": "",
          "type": "address"
        }
      ],
      "stateMutability": "view",
      "type": "function"
    },
    {
      "inputs": [
        {
          "internalType": "uint256",
          "name": "itemId",
          "type": "uint256"
        }
      ],
      "name": "purchaseMarketItem",
      "outputs": [],
      "stateMutability": "nonpayable",
      "type": "function"
    }
  ],
  "bytecode": "0x60806040523480156200001157600080fd5b5060405162001b8b38038062001b8b833981810160405281019062000037919062000175565b600160008190555033600360006101000a81548173ffffffffffffffffffffffffffffffffffffffff021916908373ffffffffffffffffffffffffffffffffffffffff16021790555081600560006101000a81548173ffffffffffffffffffffffffffffffffffffffff021916908373ffffffffffffffffffffffffffffffffffffffff160217905550806004819055505050620001bc565b600080fd5b600073ffffffffffffffffffffffffffffffffffffffff82169050919050565b60006200010282620000d5565b9050919050565b6200011481620000f5565b81146200012057600080fd5b50565b600081519050620001348162000109565b92915050565b6000819050919050565b6200014f816200013a565b81146200015b57600080fd5b50565b6000815190506200016f8162000144565b92915050565b600080604083850312156200018f576200018e620000d0565b5b60006200019f8582860162000123565b9250506020620001b2858286016200015e565b9150509250929050565b6119bf80620001cc6000396000f3fe608060405234801561001057600080fd5b506004361061007d5760003560e01c80636a1b7ecc1161005b5780636a1b7ecc146100da5780638c77b5b7146100f85780638da5cb5b14610114578063a6e22b02146101325761007d565b806311acf286146100825780633013ce29146100a057806358eb2df5146100be575b600080fd5b61008a61014e565b60405161009791906111dc565b60405180910390f35b6100a86104cb565b6040516100b5919061125d565b60405180910390f35b6100d860048036038101906100d391906112d5565b6104f1565b005b6100e2610949565b6040516100ef9190611337565b60405180910390f35b610112600480360381019061010d9190611352565b61094f565b005b61011c610cea565b604051610129919061138e565b60405180910390f35b61014c60048036038101906101479190611352565b610d10565b005b6060600061015c6001610f14565b9050600080600190505b828111610227576006600082815260200190815260200160002060060160009054906101000a900460ff161580156102005750600073ffffffffffffffffffffffffffffffffffffffff166006600083815260200190815260200160002060040160009054906101000a900473ffffffffffffffffffffffffffffffffffffffff1673ffffffffffffffffffffffffffffffffffffffff16145b15610214578180610210906113d8565b9250505b808061021f906113d8565b915050610166565b5060008167ffffffffffffffff81111561024457610243611420565b5b60405190808252806020026020018201604052801561027d57816020015b61026a610f88565b8152602001906001900390816102625790505b509050600080600190505b8481116104c0576006600082815260200190815260200160002060060160009054906101000a900460ff161580156103225750600073ffffffffffffffffffffffffffffffffffffffff166006600083815260200190815260200160002060040160009054906101000a900473ffffffffffffffffffffffffffffffffffffffff1673ffffffffffffffffffffffffffffffffffffffff16145b156104ad57600660008281526020019081526020016000206040518060e0016040529081600082015481526020016001820160009054906101000a900473ffffffffffffffffffffffffffffffffffffffff1673ffffffffffffffffffffffffffffffffffffffff1673ffffffffffffffffffffffffffffffffffffffff168152602001600282015481526020016003820160009054906101000a900473ffffffffffffffffffffffffffffffffffffffff1673ffffffffffffffffffffffffffffffffffffffff1673ffffffffffffffffffffffffffffffffffffffff1681526020016004820160009054906101000a900473ffffffffffffffffffffffffffffffffffffffff1673ffffffffffffffffffffffffffffffffffffffff1673ffffffffffffffffffffffffffffffffffffffff168152602001600582015481526020016006820160009054906101000a900460ff1615151515815250508383815181106104935761049261144f565b5b602002602001018190525081806104a9906113d8565b9250505b80806104b8906113d8565b915050610288565b508194505050505090565b600560009054906101000a900473ffffffffffffffffffffffffffffffffffffffff1681565b6104f9610f22565b6000811161053c576040517f08c379a0000000000000000000000000000000000000000000000000000000008152600401610533906114db565b60405180910390fd5b600560009054906101000a900473ffffffffffffffffffffffffffffffffffffffff1673ffffffffffffffffffffffffffffffffffffffff166323b872dd33600360009054906101000a900473ffffffffffffffffffffffffffffffffffffffff166004546040518463ffffffff1660e01b81526004016105bf9392919061152b565b6020604051808303816000875af11580156105de573d6000803e3d6000fd5b505050506040513d601f19601f82011682018060405250810190610602919061158e565b610641576040517f08c379a000000000000000000000000000000000000000000000000000000000815260040161063890611607565b60405180910390fd5b3073ffffffffffffffffffffffffffffffffffffffff168373ffffffffffffffffffffffffffffffffffffffff1663081812fc846040518263ffffffff1660e01b81526004016106919190611337565b602060405180830381865afa1580156106ae573d6000803e3d6000fd5b505050506040513d601f19601f820116820180604052508101906106d2919061163c565b73ffffffffffffffffffffffffffffffffffffffff1614610728576040517f08c379a000000000000000000000000000000000000000000000000000000000815260040161071f906116db565b60405180910390fd5b6107326001610f68565b600061073e6001610f14565b90506040518060e001604052808281526020018573ffffffffffffffffffffffffffffffffffffffff1681526020018481526020013373ffffffffffffffffffffffffffffffffffffffff168152602001600073ffffffffffffffffffffffffffffffffffffffff16815260200183815260200160001515815250600660008381526020019081526020016000206000820151816000015560208201518160010160006101000a81548173ffffffffffffffffffffffffffffffffffffffff021916908373ffffffffffffffffffffffffffffffffffffffff1602179055506040820151816002015560608201518160030160006101000a81548173ffffffffffffffffffffffffffffffffffffffff021916908373ffffffffffffffffffffffffffffffffffffffff16021790555060808201518160040160006101000a81548173ffffffffffffffffffffffffffffffffffffffff021916908373ffffffffffffffffffffffffffffffffffffffff16021790555060a0820151816005015560c08201518160060160006101000a81548160ff0219169083151502179055509050508373ffffffffffffffffffffffffffffffffffffffff16817f045dfa01dcba2b36aba1d3dc4a874f4b0c5d2fbeb8d2c4b34a7d88c8d8f929d18533600087600060405161093395949392919061170a565b60405180910390a350610944610f7e565b505050565b60045481565b610957610f22565b600060066000838152602001908152602001600020905060008160000154116109b5576040517f08c379a00000000000000000000000000000000000000000000000000000000081526004016109ac906117a9565b60405180910390fd5b8060060160009054906101000a900460ff1615610a07576040517f08c379a00000000000000000000000000000000000000000000000000000000081526004016109fe90611815565b60405180910390fd5b600560009054906101000a900473ffffffffffffffffffffffffffffffffffffffff1673ffffffffffffffffffffffffffffffffffffffff166323b872dd338360030160009054906101000a900473ffffffffffffffffffffffffffffffffffffffff1684600501546040518463ffffffff1660e01b8152600401610a8e9392919061152b565b6020604051808303816000875af1158015610aad573d6000803e3d6000fd5b505050506040513d601f19601f82011682018060405250810190610ad1919061158e565b610b10576040517f08c379a0000000000000000000000000000000000000000000000000000000008152600401610b0790611881565b60405180910390fd5b8060010160009054906101000a900473ffffffffffffffffffffffffffffffffffffffff1673ffffffffffffffffffffffffffffffffffffffff166323b872dd8260030160009054906101000a900473ffffffffffffffffffffffffffffffffffffffff163384600201546040518463ffffffff1660e01b8152600401610b99939291906118a1565b600060405180830381600087803b158015610bb357600080fd5b505af1158015610bc7573d6000803e3d6000fd5b50505050338160040160006101000a81548173ffffffffffffffffffffffffffffffffffffffff021916908373ffffffffffffffffffffffffffffffffffffffff16021790555060018160060160006101000a81548160ff021916908315150217905550610c356002610f68565b8060010160009054906101000a900473ffffffffffffffffffffffffffffffffffffffff1673ffffffffffffffffffffffffffffffffffffffff1681600001547f6a5f9d2b6ff1f375ebe095556dc91e68fce80a6187d7527cce81c3ab02726c9c83600201548460030160009054906101000a900473ffffffffffffffffffffffffffffffffffffffff16338660050154604051610cd694939291906118d8565b60405180910390a350610ce7610f7e565b50565b600360009054906101000a900473ffffffffffffffffffffffffffffffffffffffff1681565b610d18610f22565b60006006600083815260200190815260200160002090506000816000015411610d76576040517f08c379a0000000000000000000000000000000000000000000000000000000008152600401610d6d906117a9565b60405180910390fd5b8060060160009054906101000a900460ff1615610dc8576040517f08c379a0000000000000000000000000000000000000000000000000000000008152600401610dbf90611815565b60405180910390fd5b3373ffffffffffffffffffffffffffffffffffffffff168160030160009054906101000a900473ffffffffffffffffffffffffffffffffffffffff1673ffffffffffffffffffffffffffffffffffffffff1614610e5a576040517f08c379a0000000000000000000000000000000000000000000000000000000008152600401610e5190611969565b60405180910390fd5b338160040160006101000a81548173ffffffffffffffffffffffffffffffffffffffff021916908373ffffffffffffffffffffffffffffffffffffffff16021790555060018160060160006101000a81548160ff021916908315150217905550610ec46002610f68565b3373ffffffffffffffffffffffffffffffffffffffff16827f7f6c75506874ed287b7acd69828581f2bc14ac42c80899ce98ff4f76e465818060405160405180910390a350610f11610f7e565b50565b600081600001549050919050565b600260005403610f5e576040517f3ee5aeb500000000000000000000000000000000000000000000000000000000815260040160405180910390fd5b6002600081905550565b6001816000016000828254019250508190555050565b6001600081905550565b6040518060e0016040528060008152602001600073ffffffffffffffffffffffffffffffffffffffff16815260200160008152602001600073ffffffffffffffffffffffffffffffffffffffff168152602001600073ffffffffffffffffffffffffffffffffffffffff168152602001600081526020016000151581525090565b600081519050919050565b600082825260208201905092915050565b6000819050602082019050919050565b6000819050919050565b61104881611035565b82525050565b600073ffffffffffffffffffffffffffffffffffffffff82169050919050565b60006110798261104e565b9050919050565b6110898161106e565b82525050565b600061109a8261104e565b9050919050565b6110aa8161108f565b82525050565b60008115159050919050565b6110c5816110b0565b82525050565b60e0820160008201516110e1600085018261103f565b5060208201516110f46020850182611080565b506040820151611107604085018261103f565b50606082015161111a60608501826110a1565b50608082015161112d60808501826110a1565b5060a082015161114060a085018261103f565b5060c082015161115360c08501826110bc565b50505050565b600061116583836110cb565b60e08301905092915050565b6000602082019050919050565b600061118982611009565b6111938185611014565b935061119e83611025565b8060005b838110156111cf5781516111b68882611159565b97506111c183611171565b9250506001810190506111a2565b5085935050505092915050565b600060208201905081810360008301526111f6818461117e565b905092915050565b6000819050919050565b600061122361121e6112198461104e565b6111fe565b61104e565b9050919050565b600061123582611208565b9050919050565b60006112478261122a565b9050919050565b6112578161123c565b82525050565b6000602082019050611272600083018461124e565b92915050565b600080fd5b6112868161106e565b811461129157600080fd5b50565b6000813590506112a38161127d565b92915050565b6112b281611035565b81146112bd57600080fd5b50565b6000813590506112cf816112a9565b92915050565b6000806000606084860312156112ee576112ed611278565b5b60006112fc86828701611294565b935050602061130d868287016112c0565b925050604061131e868287016112c0565b9150509250925092565b61133181611035565b82525050565b600060208201905061134c6000830184611328565b92915050565b60006020828403121561136857611367611278565b5b6000611376848285016112c0565b91505092915050565b6113888161108f565b82525050565b60006020820190506113a3600083018461137f565b92915050565b7f4e487b7100000000000000000000000000000000000000000000000000000000600052601160045260246000fd5b60006113e382611035565b91507fffffffffffffffffffffffffffffffffffffffffffffffffffffffffffffffff8203611415576114146113a9565b5b600182019050919050565b7f4e487b7100000000000000000000000000000000000000000000000000000000600052604160045260246000fd5b7f4e487b7100000000000000000000000000000000000000000000000000000000600052603260045260246000fd5b600082825260208201905092915050565b7f5072696365206d7573742062652067726561746572207468616e207a65726f00600082015250565b60006114c5601f8361147e565b91506114d08261148f565b602082019050919050565b600060208201905081810360008301526114f4816114b8565b9050919050565b6115048161106e565b82525050565b60006115158261122a565b9050919050565b6115258161150a565b82525050565b600060608201905061154060008301866114fb565b61154d602083018561151c565b61155a6040830184611328565b949350505050565b61156b816110b0565b811461157657600080fd5b50565b60008151905061158881611562565b92915050565b6000602082840312156115a4576115a3611278565b5b60006115b284828501611579565b91505092915050565b7f4c697374696e6720666565207472616e73666572206661696c65640000000000600082015250565b60006115f1601b8361147e565b91506115fc826115bb565b602082019050919050565b60006020820190508181036000830152611620816115e4565b9050919050565b6000815190506116368161127d565b92915050565b60006020828403121561165257611651611278565b5b600061166084828501611627565b91505092915050565b7f4d61726b6574706c616365206973206e6f7420617070726f76656420746f206d60008201527f616e6167652074686973204e4654000000000000000000000000000000000000602082015250565b60006116c5602e8361147e565b91506116d082611669565b604082019050919050565b600060208201905081810360008301526116f4816116b8565b9050919050565b611704816110b0565b82525050565b600060a08201905061171f6000830188611328565b61172c60208301876114fb565b61173960408301866114fb565b6117466060830185611328565b61175360808301846116fb565b9695505050505050565b7f4974656d20646f6573206e6f7420657869737400000000000000000000000000600082015250565b600061179360138361147e565b915061179e8261175d565b602082019050919050565b600060208201905081810360008301526117c281611786565b9050919050565b7f4974656d20616c726561647920736f6c64000000000000000000000000000000600082015250565b60006117ff60118361147e565b915061180a826117c9565b602082019050919050565b6000602082019050818103600083015261182e816117f2565b9050919050565b7f5061796d656e74206661696c6564000000000000000000000000000000000000600082015250565b600061186b600e8361147e565b915061187682611835565b602082019050919050565b6000602082019050818103600083015261189a8161185e565b9050919050565b60006060820190506118b6600083018661151c565b6118c360208301856114fb565b6118d06040830184611328565b949350505050565b60006080820190506118ed6000830187611328565b6118fa602083018661151c565b61190760408301856114fb565b6119146060830184611328565b95945050505050565b7f4f6e6c792073656c6c65722063616e2063616e63656c206c697374696e670000600082015250565b6000611953601e8361147e565b915061195e8261191d565b602082019050919050565b6000602082019050818103600083015261198281611946565b905091905056fea26469706673582212205a9e32518a7c3a1dd529cfe9b6881f3bf966fb56afdc2a56b3ed1357b4f9d68364736f6c63430008140033",
  "linkReferences": {},
  "deployedLinkReferences": {}
}