{
  "_format": "hh-sol-artifact-1",
  "contractName": "Token",
  "sourceName": "contracts/Token.sol",
  "abi": [
    {
      "inputs": [],
      "stateMutability": "nonpayable",
      "type": "constructor"
    },
    {
      "inputs": [
        {
          "internalType": "address",
          "name": "spender",
          "type": "address"
        },
        {
          "internalType": "uint256",
          "name": "allowance",
          "type": "uint256"
        },
        {
          "internalType": "uint256",
          "name": "needed",
          "type": "uint256"
        }
      ],
      "name": "ERC20InsufficientAllowance",
      "type": "error"
    },
    {
      "inputs": [
        {
          "internalType": "address",
          "name": "sender",
          "type": "address"
        },
        {
          "internalType": "uint256",
          "name": "balance",
          "type": "uint256"
        },
        {
          "internalType": "uint256",
          "name": "needed",
          "type": "uint256"
        }
      ],
      "name": "ERC20InsufficientBalance",
      "type": "error"
    },
    {
      "inputs": [
        {
          "internalType": "address",
          "name": "approver",
          "type": "address"
        }
      ],
      "name": "ERC20InvalidApprover",
      "type": "error"
    },
    {
      "inputs": [
        {
          "internalType": "address",
          "name": "receiver",
          "type": "address"
        }
      ],
      "name": "ERC20InvalidReceiver",
      "type": "error"
    },
    {
      "inputs": [
        {
          "internalType": "address",
          "name": "sender",
          "type": "address"
        }
      ],
      "name": "ERC20InvalidSender",
      "type": "error"
    },
    {
      "inputs": [
        {
          "internalType": "address",
          "name": "spender",
          "type": "address"
        }
      ],
      "name": "ERC20InvalidSpender",
      "type": "error"
    },
    {
      "anonymous": false,
      "inputs": [
        {
          "indexed": true,
          "internalType": "address",
          "name": "owner",
          "type": "address"
        },
        {
          "indexed": true,
          "internalType": "address",
          "name": "spender",
          "type": "address"
        },
        {
          "indexed": false,
          "internalType": "uint256",
          "name": "value",
          "type": "uint256"
        }
      ],
      "name": "Approval",
      "type": "event"
    },
    {
      "anonymous": false,
      "inputs": [
        {
          "indexed": false,
          "internalType": "uint256",
          "name": "newPrice",
          "type": "uint256"
        }
      ],
      "name": "PriceUpdated",
      "type": "event"
    },
    {
      "anonymous": false,
      "inputs": [
        {
          "indexed": true,
          "internalType": "address",
          "name": "from",
          "type": "address"
        },
        {
          "indexed": true,
          "internalType": "address",
          "name": "to",
          "type": "address"
        },
        {
          "indexed": false,
          "internalType": "uint256",
          "name": "value",
          "type": "uint256"
        }
      ],
      "name": "Transfer",
      "type": "event"
    },
    {
      "inputs": [
        {
          "internalType": "address",
          "name": "owner",
          "type": "address"
        },
        {
          "internalType": "address",
          "name": "spender",
          "type": "address"
        }
      ],
      "name": "allowance",
      "outputs": [
        {
          "internalType": "uint256",
          "name": "",
          "type": "uint256"
        }
      ],
      "stateMutability": "view",
      "type": "function"
    },
    {
      "inputs": [
        {
          "internalType": "address",
          "name": "spender",
          "type": "address"
        },
        {
          "internalType": "uint256",
          "name": "value",
          "type": "uint256"
        }
      ],
      "name": "approve",
      "outputs": [
        {
          "internalType": "bool",
          "name": "",
          "type": "bool"
        }
      ],
      "stateMutability": "nonpayable",
      "type": "function"
    },
    {
      "inputs": [
        {
          "internalType": "address",
          "name": "account",
          "type": "address"
        }
      ],
      "name": "balanceOf",
      "outputs": [
        {
          "internalType": "uint256",
          "name": "",
          "type": "uint256"
        }
      ],
      "stateMutability": "view",
      "type": "function"
    },
    {
      "inputs": [],
      "name": "decimals",
      "outputs": [
        {
          "internalType": "uint8",
          "name": "",
          "type": "uint8"
        }
      ],
      "stateMutability": "view",
      "type": "function"
    },
    {
      "inputs": [],
      "name": "name",
      "outputs": [
        {
          "internalType": "string",
          "name": "",
          "type": "string"
        }
      ],
      "stateMutability": "view",
      "type": "function"
    },
    {
      "inputs": [],
      "name": "owner",
      "outputs": [
        {
          "internalType": "address",
          "name": "",
          "type": "address"
        }
      ],
      "stateMutability": "view",
      "type": "function"
    },
    {
      "inputs": [],
      "name": "price",
      "outputs": [
        {
          "internalType": "uint256",
          "name": "",
          "type": "uint256"
        }
      ],
      "stateMutability": "view",
      "type": "function"
    },
    {
      "inputs": [],
      "name": "symbol",
      "outputs": [
        {
          "internalType": "string",
          "name": "",
          "type": "string"
        }
      ],
      "stateMutability": "view",
      "type": "function"
    },
    {
      "inputs": [],
      "name": "totalSupply",
      "outputs": [
        {
          "internalType": "uint256",
          "name": "",
          "type": "uint256"
        }
      ],
      "stateMutability": "view",
      "type": "function"
    },
    {
      "inputs": [
        {
          "internalType": "address",
          "name": "to",
          "type": "address"
        },
        {
          "internalType": "uint256",
          "name": "value",
          "type": "uint256"
        }
      ],
      "name": "transfer",
      "outputs": [
        {
          "internalType": "bool",
          "name": "",
          "type": "bool"
        }
      ],
      "stateMutability": "nonpayable",
      "type": "function"
    },
    {
      "inputs": [
        {
          "internalType": "address",
          "name": "from",
          "type": "address"
        },
        {
          "internalType": "address",
          "name": "to",
          "type": "address"
        },
        {
          "internalType": "uint256",
          "name": "value",
          "type": "uint256"
        }
      ],
      "name": "transferFrom",
      "outputs": [
        {
          "internalType": "bool",
          "name": "",
          "type": "bool"
        }
      ],
      "stateMutability": "nonpayable",
      "type": "function"
    },
    {
      "inputs": [
        {
          "internalType": "uint256",
          "name": "newPrice",
          "type": "uint256"
        }
      ],
      "name": "updatePrice",
      "outputs": [],
      "stateMutability": "nonpayable",
      "type": "function"
    }
  ],
  "bytecode": "0x60806040523480156200001157600080fd5b506040518060400160405280600a81526020017f4a656666205065736f73000000000000000000000000000000000000000000008152506040518060400160405280600381526020017f4a4650000000000000000000000000000000000000000000000000000000000081525081600390816200008f919062000694565b508060049081620000a1919062000694565b50505033600660006101000a81548173ffffffffffffffffffffffffffffffffffffffff021916908373ffffffffffffffffffffffffffffffffffffffff16021790555062000146600660009054906101000a900473ffffffffffffffffffffffffffffffffffffffff166200011c6200015860201b60201c565b600a6200012a91906200090b565b620f42406200013a91906200095c565b6200015d60201b60201c565b64e8d4a5100060058190555062000aaf565b600090565b600073ffffffffffffffffffffffffffffffffffffffff168273ffffffffffffffffffffffffffffffffffffffff1603620001d25760006040517fec442f05000000000000000000000000000000000000000000000000000000008152600401620001c99190620009ec565b60405180910390fd5b620001e660008383620001ea60201b60201c565b5050565b600073ffffffffffffffffffffffffffffffffffffffff168373ffffffffffffffffffffffffffffffffffffffff16036200024057806002600082825462000233919062000a09565b9250508190555062000316565b60008060008573ffffffffffffffffffffffffffffffffffffffff1673ffffffffffffffffffffffffffffffffffffffff16815260200190815260200160002054905081811015620002cf578381836040517fe450d38c000000000000000000000000000000000000000000000000000000008152600401620002c69392919062000a55565b60405180910390fd5b8181036000808673ffffffffffffffffffffffffffffffffffffffff1673ffffffffffffffffffffffffffffffffffffffff16815260200190815260200160002081905550505b600073ffffffffffffffffffffffffffffffffffffffff168273ffffffffffffffffffffffffffffffffffffffff1603620003615780600260008282540392505081905550620003ae565b806000808473ffffffffffffffffffffffffffffffffffffffff1673ffffffffffffffffffffffffffffffffffffffff168152602001908152602001600020600082825401925050819055505b8173ffffffffffffffffffffffffffffffffffffffff168373ffffffffffffffffffffffffffffffffffffffff167fddf252ad1be2c89b69c2b068fc378daa952ba7f163c4a11628f55a4df523b3ef836040516200040d919062000a92565b60405180910390a3505050565b600081519050919050565b7f4e487b7100000000000000000000000000000000000000000000000000000000600052604160045260246000fd5b7f4e487b7100000000000000000000000000000000000000000000000000000000600052602260045260246000fd5b600060028204905060018216806200049c57607f821691505b602082108103620004b257620004b162000454565b5b50919050565b60008190508160005260206000209050919050565b60006020601f8301049050919050565b600082821b905092915050565b6000600883026200051c7fffffffffffffffffffffffffffffffffffffffffffffffffffffffffffffffff82620004dd565b620005288683620004dd565b95508019841693508086168417925050509392505050565b6000819050919050565b6000819050919050565b6000620005756200056f620005698462000540565b6200054a565b62000540565b9050919050565b6000819050919050565b620005918362000554565b620005a9620005a0826200057c565b848454620004ea565b825550505050565b600090565b620005c0620005b1565b620005cd81848462000586565b505050565b5b81811015620005f557620005e9600082620005b6565b600181019050620005d3565b5050565b601f82111562000644576200060e81620004b8565b6200061984620004cd565b8101602085101562000629578190505b620006416200063885620004cd565b830182620005d2565b50505b505050565b600082821c905092915050565b6000620006696000198460080262000649565b1980831691505092915050565b600062000684838362000656565b9150826002028217905092915050565b6200069f826200041a565b67ffffffffffffffff811115620006bb57620006ba62000425565b5b620006c7825462000483565b620006d4828285620005f9565b600060209050601f8311600181146200070c5760008415620006f7578287015190505b62000703858262000676565b86555062000773565b601f1984166200071c86620004b8565b60005b8281101562000746578489015182556001820191506020850194506020810190506200071f565b8683101562000766578489015162000762601f89168262000656565b8355505b6001600288020188555050505b505050505050565b7f4e487b7100000000000000000000000000000000000000000000000000000000600052601160045260246000fd5b60008160011c9050919050565b6000808291508390505b60018511156200080957808604811115620007e157620007e06200077b565b5b6001851615620007f15780820291505b80810290506200080185620007aa565b9450620007c1565b94509492505050565b600082620008245760019050620008f7565b81620008345760009050620008f7565b81600181146200084d576002811462000858576200088e565b6001915050620008f7565b60ff8411156200086d576200086c6200077b565b5b8360020a9150848211156200088757620008866200077b565b5b50620008f7565b5060208310610133831016604e8410600b8410161715620008c85782820a905083811115620008c257620008c16200077b565b5b620008f7565b620008d78484846001620007b7565b92509050818404811115620008f157620008f06200077b565b5b81810290505b9392505050565b600060ff82169050919050565b6000620009188262000540565b91506200092583620008fe565b9250620009547fffffffffffffffffffffffffffffffffffffffffffffffffffffffffffffffff848462000812565b905092915050565b6000620009698262000540565b9150620009768362000540565b9250828202620009868162000540565b91508282048414831517620009a0576200099f6200077b565b5b5092915050565b600073ffffffffffffffffffffffffffffffffffffffff82169050919050565b6000620009d482620009a7565b9050919050565b620009e681620009c7565b82525050565b600060208201905062000a036000830184620009db565b92915050565b600062000a168262000540565b915062000a238362000540565b925082820190508082111562000a3e5762000a3d6200077b565b5b92915050565b62000a4f8162000540565b82525050565b600060608201905062000a6c6000830186620009db565b62000a7b602083018562000a44565b62000a8a604083018462000a44565b949350505050565b600060208201905062000aa9600083018462000a44565b92915050565b6110618062000abf6000396000f3fe608060405234801561001057600080fd5b50600436106100b45760003560e01c80638d6cc56d116100715780638d6cc56d146101a35780638da5cb5b146101bf57806395d89b41146101dd578063a035b1fe146101fb578063a9059cbb14610219578063dd62ed3e14610249576100b4565b806306fdde03146100b9578063095ea7b3146100d757806318160ddd1461010757806323b872dd14610125578063313ce5671461015557806370a0823114610173575b600080fd5b6100c1610279565b6040516100ce9190610c1c565b60405180910390f35b6100f160048036038101906100ec9190610cd7565b61030b565b6040516100fe9190610d32565b60405180910390f35b61010f61032e565b60405161011c9190610d5c565b60405180910390f35b61013f600480360381019061013a9190610d77565b610338565b60405161014c9190610d32565b60405180910390f35b61015d610367565b60405161016a9190610de6565b60405180910390f35b61018d60048036038101906101889190610e01565b61036c565b60405161019a9190610d5c565b60405180910390f35b6101bd60048036038101906101b89190610e2e565b6103b4565b005b6101c7610485565b6040516101d49190610e6a565b60405180910390f35b6101e56104ab565b6040516101f29190610c1c565b60405180910390f35b61020361053d565b6040516102109190610d5c565b60405180910390f35b610233600480360381019061022e9190610cd7565b610543565b6040516102409190610d32565b60405180910390f35b610263600480360381019061025e9190610e85565b610566565b6040516102709190610d5c565b60405180910390f35b60606003805461028890610ef4565b80601f01602080910402602001604051908101604052809291908181526020018280546102b490610ef4565b80156103015780601f106102d657610100808354040283529160200191610301565b820191906000526020600020905b8154815290600101906020018083116102e457829003601f168201915b5050505050905090565b6000806103166105ed565b90506103238185856105f5565b600191505092915050565b6000600254905090565b6000806103436105ed565b9050610350858285610607565b61035b85858561069c565b60019150509392505050565b600090565b60008060008373ffffffffffffffffffffffffffffffffffffffff1673ffffffffffffffffffffffffffffffffffffffff168152602001908152602001600020549050919050565b600660009054906101000a900473ffffffffffffffffffffffffffffffffffffffff1673ffffffffffffffffffffffffffffffffffffffff163373ffffffffffffffffffffffffffffffffffffffff1614610444576040517f08c379a000000000000000000000000000000000000000000000000000000000815260040161043b90610f71565b60405180910390fd5b806005819055507f66cbca4f3c64fecf1dcb9ce094abcf7f68c3450a1d4e3a8e917dd621edb4ebe08160405161047a9190610d5c565b60405180910390a150565b600660009054906101000a900473ffffffffffffffffffffffffffffffffffffffff1681565b6060600480546104ba90610ef4565b80601f01602080910402602001604051908101604052809291908181526020018280546104e690610ef4565b80156105335780601f1061050857610100808354040283529160200191610533565b820191906000526020600020905b81548152906001019060200180831161051657829003601f168201915b5050505050905090565b60055481565b60008061054e6105ed565b905061055b81858561069c565b600191505092915050565b6000600160008473ffffffffffffffffffffffffffffffffffffffff1673ffffffffffffffffffffffffffffffffffffffff16815260200190815260200160002060008373ffffffffffffffffffffffffffffffffffffffff1673ffffffffffffffffffffffffffffffffffffffff16815260200190815260200160002054905092915050565b600033905090565b6106028383836001610790565b505050565b60006106138484610566565b90507fffffffffffffffffffffffffffffffffffffffffffffffffffffffffffffffff8110156106965781811015610686578281836040517ffb8f41b200000000000000000000000000000000000000000000000000000000815260040161067d93929190610f91565b60405180910390fd5b61069584848484036000610790565b5b50505050565b600073ffffffffffffffffffffffffffffffffffffffff168373ffffffffffffffffffffffffffffffffffffffff160361070e5760006040517f96c6fd1e0000000000000000000000000000000000000000000000000000000081526004016107059190610e6a565b60405180910390fd5b600073ffffffffffffffffffffffffffffffffffffffff168273ffffffffffffffffffffffffffffffffffffffff16036107805760006040517fec442f050000000000000000000000000000000000000000000000000000000081526004016107779190610e6a565b60405180910390fd5b61078b838383610967565b505050565b600073ffffffffffffffffffffffffffffffffffffffff168473ffffffffffffffffffffffffffffffffffffffff16036108025760006040517fe602df050000000000000000000000000000000000000000000000000000000081526004016107f99190610e6a565b60405180910390fd5b600073ffffffffffffffffffffffffffffffffffffffff168373ffffffffffffffffffffffffffffffffffffffff16036108745760006040517f94280d6200000000000000000000000000000000000000000000000000000000815260040161086b9190610e6a565b60405180910390fd5b81600160008673ffffffffffffffffffffffffffffffffffffffff1673ffffffffffffffffffffffffffffffffffffffff16815260200190815260200160002060008573ffffffffffffffffffffffffffffffffffffffff1673ffffffffffffffffffffffffffffffffffffffff168152602001908152602001600020819055508015610961578273ffffffffffffffffffffffffffffffffffffffff168473ffffffffffffffffffffffffffffffffffffffff167f8c5be1e5ebec7d5bd14f71427d1e84f3dd0314c0f7b2291e5b200ac8c7c3b925846040516109589190610d5c565b60405180910390a35b50505050565b600073ffffffffffffffffffffffffffffffffffffffff168373ffffffffffffffffffffffffffffffffffffffff16036109b95780600260008282546109ad9190610ff7565b92505081905550610a8c565b60008060008573ffffffffffffffffffffffffffffffffffffffff1673ffffffffffffffffffffffffffffffffffffffff16815260200190815260200160002054905081811015610a45578381836040517fe450d38c000000000000000000000000000000000000000000000000000000008152600401610a3c93929190610f91565b60405180910390fd5b8181036000808673ffffffffffffffffffffffffffffffffffffffff1673ffffffffffffffffffffffffffffffffffffffff16815260200190815260200160002081905550505b600073ffffffffffffffffffffffffffffffffffffffff168273ffffffffffffffffffffffffffffffffffffffff1603610ad55780600260008282540392505081905550610b22565b806000808473ffffffffffffffffffffffffffffffffffffffff1673ffffffffffffffffffffffffffffffffffffffff168152602001908152602001600020600082825401925050819055505b8173ffffffffffffffffffffffffffffffffffffffff168373ffffffffffffffffffffffffffffffffffffffff167fddf252ad1be2c89b69c2b068fc378daa952ba7f163c4a11628f55a4df523b3ef83604051610b7f9190610d5c565b60405180910390a3505050565b600081519050919050565b600082825260208201905092915050565b60005b83811015610bc6578082015181840152602081019050610bab565b60008484015250505050565b6000601f19601f8301169050919050565b6000610bee82610b8c565b610bf88185610b97565b9350610c08818560208601610ba8565b610c1181610bd2565b840191505092915050565b60006020820190508181036000830152610c368184610be3565b905092915050565b600080fd5b600073ffffffffffffffffffffffffffffffffffffffff82169050919050565b6000610c6e82610c43565b9050919050565b610c7e81610c63565b8114610c8957600080fd5b50565b600081359050610c9b81610c75565b92915050565b6000819050919050565b610cb481610ca1565b8114610cbf57600080fd5b50565b600081359050610cd181610cab565b92915050565b60008060408385031215610cee57610ced610c3e565b5b6000610cfc85828601610c8c565b9250506020610d0d85828601610cc2565b9150509250929050565b60008115159050919050565b610d2c81610d17565b82525050565b6000602082019050610d476000830184610d23565b92915050565b610d5681610ca1565b82525050565b6000602082019050610d716000830184610d4d565b92915050565b600080600060608486031215610d9057610d8f610c3e565b5b6000610d9e86828701610c8c565b9350506020610daf86828701610c8c565b9250506040610dc086828701610cc2565b9150509250925092565b600060ff82169050919050565b610de081610dca565b82525050565b6000602082019050610dfb6000830184610dd7565b92915050565b600060208284031215610e1757610e16610c3e565b5b6000610e2584828501610c8c565b91505092915050565b600060208284031215610e4457610e43610c3e565b5b6000610e5284828501610cc2565b91505092915050565b610e6481610c63565b82525050565b6000602082019050610e7f6000830184610e5b565b92915050565b60008060408385031215610e9c57610e9b610c3e565b5b6000610eaa85828601610c8c565b9250506020610ebb85828601610c8c565b9150509250929050565b7f4e487b7100000000000000000000000000000000000000000000000000000000600052602260045260246000fd5b60006002820490506001821680610f0c57607f821691505b602082108103610f1f57610f1e610ec5565b5b50919050565b7f4f6e6c79206f776e65722063616e207570646174652070726963650000000000600082015250565b6000610f5b601b83610b97565b9150610f6682610f25565b602082019050919050565b60006020820190508181036000830152610f8a81610f4e565b9050919050565b6000606082019050610fa66000830186610e5b565b610fb36020830185610d4d565b610fc06040830184610d4d565b949350505050565b7f4e487b7100000000000000000000000000000000000000000000000000000000600052601160045260246000fd5b600061100282610ca1565b915061100d83610ca1565b925082820190508082111561102557611024610fc8565b5b9291505056fea2646970667358221220764b4ab92d175ccf9872bee8605e23fc3cd16fa1d55884465d6115a22dbd3b3464736f6c63430008140033",
  "linkReferences": {},
  "deployedLinkReferences": {}
}