{
  "_format": "hh-sol-artifact-1",
  "contractName": "Token",
  "sourceName": "contracts/Token.sol",
  "abi": [
    {
      "inputs": [],
      "stateMutability": "nonpayable",
      "type": "constructor"
    },
    {
      "inputs": [
        {
          "internalType": "address",
          "name": "spender",
          "type": "address"
        },
        {
          "internalType": "uint256",
          "name": "allowance",
          "type": "uint256"
        },
        {
          "internalType": "uint256",
          "name": "needed",
          "type": "uint256"
        }
      ],
      "name": "ERC20InsufficientAllowance",
      "type": "error"
    },
    {
      "inputs": [
        {
          "internalType": "address",
          "name": "sender",
          "type": "address"
        },
        {
          "internalType": "uint256",
          "name": "balance",
          "type": "uint256"
        },
        {
          "internalType": "uint256",
          "name": "needed",
          "type": "uint256"
        }
      ],
      "name": "ERC20InsufficientBalance",
      "type": "error"
    },
    {
      "inputs": [
        {
          "internalType": "address",
          "name": "approver",
          "type": "address"
        }
      ],
      "name": "ERC20InvalidApprover",
      "type": "error"
    },
    {
      "inputs": [
        {
          "internalType": "address",
          "name": "receiver",
          "type": "address"
        }
      ],
      "name": "ERC20InvalidReceiver",
      "type": "error"
    },
    {
      "inputs": [
        {
          "internalType": "address",
          "name": "sender",
          "type": "address"
        }
      ],
      "name": "ERC20InvalidSender",
      "type": "error"
    },
    {
      "inputs": [
        {
          "internalType": "address",
          "name": "spender",
          "type": "address"
        }
      ],
      "name": "ERC20InvalidSpender",
      "type": "error"
    },
    {
      "anonymous": false,
      "inputs": [
        {
          "indexed": true,
          "internalType": "address",
          "name": "owner",
          "type": "address"
        },
        {
          "indexed": true,
          "internalType": "address",
          "name": "spender",
          "type": "address"
        },
        {
          "indexed": false,
          "internalType": "uint256",
          "name": "value",
          "type": "uint256"
        }
      ],
      "name": "Approval",
      "type": "event"
    },
    {
      "anonymous": false,
      "inputs": [
        {
          "indexed": false,
          "internalType": "uint256",
          "name": "newPrice",
          "type": "uint256"
        }
      ],
      "name": "PriceUpdated",
      "type": "event"
    },
    {
      "anonymous": false,
      "inputs": [
        {
          "indexed": true,
          "internalType": "address",
          "name": "from",
          "type": "address"
        },
        {
          "indexed": true,
          "internalType": "address",
          "name": "to",
          "type": "address"
        },
        {
          "indexed": false,
          "internalType": "uint256",
          "name": "value",
          "type": "uint256"
        }
      ],
      "name": "Transfer",
      "type": "event"
    },
    {
      "inputs": [
        {
          "internalType": "address",
          "name": "owner",
          "type": "address"
        },
        {
          "internalType": "address",
          "name": "spender",
          "type": "address"
        }
      ],
      "name": "allowance",
      "outputs": [
        {
          "internalType": "uint256",
          "name": "",
          "type": "uint256"
        }
      ],
      "stateMutability": "view",
      "type": "function"
    },
    {
      "inputs": [
        {
          "internalType": "address",
          "name": "spender",
          "type": "address"
        },
        {
          "internalType": "uint256",
          "name": "value",
          "type": "uint256"
        }
      ],
      "name": "approve",
      "outputs": [
        {
          "internalType": "bool",
          "name": "",
          "type": "bool"
        }
      ],
      "stateMutability": "nonpayable",
      "type": "function"
    },
    {
      "inputs": [
        {
          "internalType": "address",
          "name": "account",
          "type": "address"
        }
      ],
      "name": "balanceOf",
      "outputs": [
        {
          "internalType": "uint256",
          "name": "",
          "type": "uint256"
        }
      ],
      "stateMutability": "view",
      "type": "function"
    },
    {
      "inputs": [],
      "name": "decimals",
      "outputs": [
        {
          "internalType": "uint8",
          "name": "",
          "type": "uint8"
        }
      ],
      "stateMutability": "view",
      "type": "function"
    },
    {
      "inputs": [],
      "name": "name",
      "outputs": [
        {
          "internalType": "string",
          "name": "",
          "type": "string"
        }
      ],
      "stateMutability": "view",
      "type": "function"
    },
    {
      "inputs": [],
      "name": "owner",
      "outputs": [
        {
          "internalType": "address",
          "name": "",
          "type": "address"
        }
      ],
      "stateMutability": "view",
      "type": "function"
    },
    {
      "inputs": [],
      "name": "price",
      "outputs": [
        {
          "internalType": "uint256",
          "name": "",
          "type": "uint256"
        }
      ],
      "stateMutability": "view",
      "type": "function"
    },
    {
      "inputs": [],
      "name": "symbol",
      "outputs": [
        {
          "internalType": "string",
          "name": "",
          "type": "string"
        }
      ],
      "stateMutability": "view",
      "type": "function"
    },
    {
      "inputs": [],
      "name": "totalSupply",
      "outputs": [
        {
          "internalType": "uint256",
          "name": "",
          "type": "uint256"
        }
      ],
      "stateMutability": "view",
      "type": "function"
    },
    {
      "inputs": [
        {
          "internalType": "address",
          "name": "to",
          "type": "address"
        },
        {
          "internalType": "uint256",
          "name": "value",
          "type": "uint256"
        }
      ],
      "name": "transfer",
      "outputs": [
        {
          "internalType": "bool",
          "name": "",
          "type": "bool"
        }
      ],
      "stateMutability": "nonpayable",
      "type": "function"
    },
    {
      "inputs": [
        {
          "internalType": "address",
          "name": "from",
          "type": "address"
        },
        {
          "internalType": "address",
          "name": "to",
          "type": "address"
        },
        {
          "internalType": "uint256",
          "name": "value",
          "type": "uint256"
        }
      ],
      "name": "transferFrom",
      "outputs": [
        {
          "internalType": "bool",
          "name": "",
          "type": "bool"
        }
      ],
      "stateMutability": "nonpayable",
      "type": "function"
    },
    {
      "inputs": [
        {
          "internalType": "uint256",
          "name": "newPrice",
          "type": "uint256"
        }
      ],
      "name": "updatePrice",
      "outputs": [],
      "stateMutability": "nonpayable",
      "type": "function"
    }
  ],
  "bytecode": "0x60806040523480156200001157600080fd5b506040518060400160405280600a81526020017f4a656666205065736f73000000000000000000000000000000000000000000008152506040518060400160405280600381526020017f4a4650000000000000000000000000000000000000000000000000000000000081525081600390816200008f919062000698565b508060049081620000a1919062000698565b50505033600660006101000a81548173ffffffffffffffffffffffffffffffffffffffff021916908373ffffffffffffffffffffffffffffffffffffffff16021790555062000146600660009054906101000a900473ffffffffffffffffffffffffffffffffffffffff166200011c6200015860201b60201c565b600a6200012a91906200090f565b620f42406200013a919062000960565b6200016160201b60201c565b64e8d4a5100060058190555062000ab3565b60006006905090565b600073ffffffffffffffffffffffffffffffffffffffff168273ffffffffffffffffffffffffffffffffffffffff1603620001d65760006040517fec442f05000000000000000000000000000000000000000000000000000000008152600401620001cd9190620009f0565b60405180910390fd5b620001ea60008383620001ee60201b60201c565b5050565b600073ffffffffffffffffffffffffffffffffffffffff168373ffffffffffffffffffffffffffffffffffffffff16036200024457806002600082825462000237919062000a0d565b925050819055506200031a565b60008060008573ffffffffffffffffffffffffffffffffffffffff1673ffffffffffffffffffffffffffffffffffffffff16815260200190815260200160002054905081811015620002d3578381836040517fe450d38c000000000000000000000000000000000000000000000000000000008152600401620002ca9392919062000a59565b60405180910390fd5b8181036000808673ffffffffffffffffffffffffffffffffffffffff1673ffffffffffffffffffffffffffffffffffffffff16815260200190815260200160002081905550505b600073ffffffffffffffffffffffffffffffffffffffff168273ffffffffffffffffffffffffffffffffffffffff1603620003655780600260008282540392505081905550620003b2565b806000808473ffffffffffffffffffffffffffffffffffffffff1673ffffffffffffffffffffffffffffffffffffffff168152602001908152602001600020600082825401925050819055505b8173ffffffffffffffffffffffffffffffffffffffff168373ffffffffffffffffffffffffffffffffffffffff167fddf252ad1be2c89b69c2b068fc378daa952ba7f163c4a11628f55a4df523b3ef8360405162000411919062000a96565b60405180910390a3505050565b600081519050919050565b7f4e487b7100000000000000000000000000000000000000000000000000000000600052604160045260246000fd5b7f4e487b7100000000000000000000000000000000000000000000000000000000600052602260045260246000fd5b60006002820490506001821680620004a057607f821691505b602082108103620004b657620004b562000458565b5b50919050565b60008190508160005260206000209050919050565b60006020601f8301049050919050565b600082821b905092915050565b600060088302620005207fffffffffffffffffffffffffffffffffffffffffffffffffffffffffffffffff82620004e1565b6200052c8683620004e1565b95508019841693508086168417925050509392505050565b6000819050919050565b6000819050919050565b600062000579620005736200056d8462000544565b6200054e565b62000544565b9050919050565b6000819050919050565b620005958362000558565b620005ad620005a48262000580565b848454620004ee565b825550505050565b600090565b620005c4620005b5565b620005d18184846200058a565b505050565b5b81811015620005f957620005ed600082620005ba565b600181019050620005d7565b5050565b601f82111562000648576200061281620004bc565b6200061d84620004d1565b810160208510156200062d578190505b620006456200063c85620004d1565b830182620005d6565b50505b505050565b600082821c905092915050565b60006200066d600019846008026200064d565b1980831691505092915050565b60006200068883836200065a565b9150826002028217905092915050565b620006a3826200041e565b67ffffffffffffffff811115620006bf57620006be62000429565b5b620006cb825462000487565b620006d8828285620005fd565b600060209050601f831160018114620007105760008415620006fb578287015190505b6200070785826200067a565b86555062000777565b601f1984166200072086620004bc565b60005b828110156200074a5784890151825560018201915060208501945060208101905062000723565b868310156200076a578489015162000766601f8916826200065a565b8355505b6001600288020188555050505b505050505050565b7f4e487b7100000000000000000000000000000000000000000000000000000000600052601160045260246000fd5b60008160011c9050919050565b6000808291508390505b60018511156200080d57808604811115620007e557620007e46200077f565b5b6001851615620007f55780820291505b80810290506200080585620007ae565b9450620007c5565b94509492505050565b600082620008285760019050620008fb565b81620008385760009050620008fb565b81600181146200085157600281146200085c5762000892565b6001915050620008fb565b60ff8411156200087157620008706200077f565b5b8360020a9150848211156200088b576200088a6200077f565b5b50620008fb565b5060208310610133831016604e8410600b8410161715620008cc5782820a905083811115620008c657620008c56200077f565b5b620008fb565b620008db8484846001620007bb565b92509050818404811115620008f557620008f46200077f565b5b81810290505b9392505050565b600060ff82169050919050565b60006200091c8262000544565b9150620009298362000902565b9250620009587fffffffffffffffffffffffffffffffffffffffffffffffffffffffffffffffff848462000816565b905092915050565b60006200096d8262000544565b91506200097a8362000544565b92508282026200098a8162000544565b91508282048414831517620009a457620009a36200077f565b5b5092915050565b600073ffffffffffffffffffffffffffffffffffffffff82169050919050565b6000620009d882620009ab565b9050919050565b620009ea81620009cb565b82525050565b600060208201905062000a076000830184620009df565b92915050565b600062000a1a8262000544565b915062000a278362000544565b925082820190508082111562000a425762000a416200077f565b5b92915050565b62000a538162000544565b82525050565b600060608201905062000a706000830186620009df565b62000a7f602083018562000a48565b62000a8e604083018462000a48565b949350505050565b600060208201905062000aad600083018462000a48565b92915050565b6110658062000ac36000396000f3fe608060405234801561001057600080fd5b50600436106100b45760003560e01c80638d6cc56d116100715780638d6cc56d146101a35780638da5cb5b146101bf57806395d89b41146101dd578063a035b1fe146101fb578063a9059cbb14610219578063dd62ed3e14610249576100b4565b806306fdde03146100b9578063095ea7b3146100d757806318160ddd1461010757806323b872dd14610125578063313ce5671461015557806370a0823114610173575b600080fd5b6100c1610279565b6040516100ce9190610c20565b60405180910390f35b6100f160048036038101906100ec9190610cdb565b61030b565b6040516100fe9190610d36565b60405180910390f35b61010f61032e565b60405161011c9190610d60565b60405180910390f35b61013f600480360381019061013a9190610d7b565b610338565b60405161014c9190610d36565b60405180910390f35b61015d610367565b60405161016a9190610dea565b60405180910390f35b61018d60048036038101906101889190610e05565b610370565b60405161019a9190610d60565b60405180910390f35b6101bd60048036038101906101b89190610e32565b6103b8565b005b6101c7610489565b6040516101d49190610e6e565b60405180910390f35b6101e56104af565b6040516101f29190610c20565b60405180910390f35b610203610541565b6040516102109190610d60565b60405180910390f35b610233600480360381019061022e9190610cdb565b610547565b6040516102409190610d36565b60405180910390f35b610263600480360381019061025e9190610e89565b61056a565b6040516102709190610d60565b60405180910390f35b60606003805461028890610ef8565b80601f01602080910402602001604051908101604052809291908181526020018280546102b490610ef8565b80156103015780601f106102d657610100808354040283529160200191610301565b820191906000526020600020905b8154815290600101906020018083116102e457829003601f168201915b5050505050905090565b6000806103166105f1565b90506103238185856105f9565b600191505092915050565b6000600254905090565b6000806103436105f1565b905061035085828561060b565b61035b8585856106a0565b60019150509392505050565b60006006905090565b60008060008373ffffffffffffffffffffffffffffffffffffffff1673ffffffffffffffffffffffffffffffffffffffff168152602001908152602001600020549050919050565b600660009054906101000a900473ffffffffffffffffffffffffffffffffffffffff1673ffffffffffffffffffffffffffffffffffffffff163373ffffffffffffffffffffffffffffffffffffffff1614610448576040517f08c379a000000000000000000000000000000000000000000000000000000000815260040161043f90610f75565b60405180910390fd5b806005819055507f66cbca4f3c64fecf1dcb9ce094abcf7f68c3450a1d4e3a8e917dd621edb4ebe08160405161047e9190610d60565b60405180910390a150565b600660009054906101000a900473ffffffffffffffffffffffffffffffffffffffff1681565b6060600480546104be90610ef8565b80601f01602080910402602001604051908101604052809291908181526020018280546104ea90610ef8565b80156105375780601f1061050c57610100808354040283529160200191610537565b820191906000526020600020905b81548152906001019060200180831161051a57829003601f168201915b5050505050905090565b60055481565b6000806105526105f1565b905061055f8185856106a0565b600191505092915050565b6000600160008473ffffffffffffffffffffffffffffffffffffffff1673ffffffffffffffffffffffffffffffffffffffff16815260200190815260200160002060008373ffffffffffffffffffffffffffffffffffffffff1673ffffffffffffffffffffffffffffffffffffffff16815260200190815260200160002054905092915050565b600033905090565b6106068383836001610794565b505050565b6000610617848461056a565b90507fffffffffffffffffffffffffffffffffffffffffffffffffffffffffffffffff81101561069a578181101561068a578281836040517ffb8f41b200000000000000000000000000000000000000000000000000000000815260040161068193929190610f95565b60405180910390fd5b61069984848484036000610794565b5b50505050565b600073ffffffffffffffffffffffffffffffffffffffff168373ffffffffffffffffffffffffffffffffffffffff16036107125760006040517f96c6fd1e0000000000000000000000000000000000000000000000000000000081526004016107099190610e6e565b60405180910390fd5b600073ffffffffffffffffffffffffffffffffffffffff168273ffffffffffffffffffffffffffffffffffffffff16036107845760006040517fec442f0500000000000000000000000000000000000000000000000000000000815260040161077b9190610e6e565b60405180910390fd5b61078f83838361096b565b505050565b600073ffffffffffffffffffffffffffffffffffffffff168473ffffffffffffffffffffffffffffffffffffffff16036108065760006040517fe602df050000000000000000000000000000000000000000000000000000000081526004016107fd9190610e6e565b60405180910390fd5b600073ffffffffffffffffffffffffffffffffffffffff168373ffffffffffffffffffffffffffffffffffffffff16036108785760006040517f94280d6200000000000000000000000000000000000000000000000000000000815260040161086f9190610e6e565b60405180910390fd5b81600160008673ffffffffffffffffffffffffffffffffffffffff1673ffffffffffffffffffffffffffffffffffffffff16815260200190815260200160002060008573ffffffffffffffffffffffffffffffffffffffff1673ffffffffffffffffffffffffffffffffffffffff168152602001908152602001600020819055508015610965578273ffffffffffffffffffffffffffffffffffffffff168473ffffffffffffffffffffffffffffffffffffffff167f8c5be1e5ebec7d5bd14f71427d1e84f3dd0314c0f7b2291e5b200ac8c7c3b9258460405161095c9190610d60565b60405180910390a35b50505050565b600073ffffffffffffffffffffffffffffffffffffffff168373ffffffffffffffffffffffffffffffffffffffff16036109bd5780600260008282546109b19190610ffb565b92505081905550610a90565b60008060008573ffffffffffffffffffffffffffffffffffffffff1673ffffffffffffffffffffffffffffffffffffffff16815260200190815260200160002054905081811015610a49578381836040517fe450d38c000000000000000000000000000000000000000000000000000000008152600401610a4093929190610f95565b60405180910390fd5b8181036000808673ffffffffffffffffffffffffffffffffffffffff1673ffffffffffffffffffffffffffffffffffffffff16815260200190815260200160002081905550505b600073ffffffffffffffffffffffffffffffffffffffff168273ffffffffffffffffffffffffffffffffffffffff1603610ad95780600260008282540392505081905550610b26565b806000808473ffffffffffffffffffffffffffffffffffffffff1673ffffffffffffffffffffffffffffffffffffffff168152602001908152602001600020600082825401925050819055505b8173ffffffffffffffffffffffffffffffffffffffff168373ffffffffffffffffffffffffffffffffffffffff167fddf252ad1be2c89b69c2b068fc378daa952ba7f163c4a11628f55a4df523b3ef83604051610b839190610d60565b60405180910390a3505050565b600081519050919050565b600082825260208201905092915050565b60005b83811015610bca578082015181840152602081019050610baf565b60008484015250505050565b6000601f19601f8301169050919050565b6000610bf282610b90565b610bfc8185610b9b565b9350610c0c818560208601610bac565b610c1581610bd6565b840191505092915050565b60006020820190508181036000830152610c3a8184610be7565b905092915050565b600080fd5b600073ffffffffffffffffffffffffffffffffffffffff82169050919050565b6000610c7282610c47565b9050919050565b610c8281610c67565b8114610c8d57600080fd5b50565b600081359050610c9f81610c79565b92915050565b6000819050919050565b610cb881610ca5565b8114610cc357600080fd5b50565b600081359050610cd581610caf565b92915050565b60008060408385031215610cf257610cf1610c42565b5b6000610d0085828601610c90565b9250506020610d1185828601610cc6565b9150509250929050565b60008115159050919050565b610d3081610d1b565b82525050565b6000602082019050610d4b6000830184610d27565b92915050565b610d5a81610ca5565b82525050565b6000602082019050610d756000830184610d51565b92915050565b600080600060608486031215610d9457610d93610c42565b5b6000610da286828701610c90565b9350506020610db386828701610c90565b9250506040610dc486828701610cc6565b9150509250925092565b600060ff82169050919050565b610de481610dce565b82525050565b6000602082019050610dff6000830184610ddb565b92915050565b600060208284031215610e1b57610e1a610c42565b5b6000610e2984828501610c90565b91505092915050565b600060208284031215610e4857610e47610c42565b5b6000610e5684828501610cc6565b91505092915050565b610e6881610c67565b82525050565b6000602082019050610e836000830184610e5f565b92915050565b60008060408385031215610ea057610e9f610c42565b5b6000610eae85828601610c90565b9250506020610ebf85828601610c90565b9150509250929050565b7f4e487b7100000000000000000000000000000000000000000000000000000000600052602260045260246000fd5b60006002820490506001821680610f1057607f821691505b602082108103610f2357610f22610ec9565b5b50919050565b7f4f6e6c79206f776e65722063616e207570646174652070726963650000000000600082015250565b6000610f5f601b83610b9b565b9150610f6a82610f29565b602082019050919050565b60006020820190508181036000830152610f8e81610f52565b9050919050565b6000606082019050610faa6000830186610e5f565b610fb76020830185610d51565b610fc46040830184610d51565b949350505050565b7f4e487b7100000000000000000000000000000000000000000000000000000000600052601160045260246000fd5b600061100682610ca5565b915061101183610ca5565b925082820190508082111561102957611028610fcc565b5b9291505056fea26469706673582212204f484e497c9edbfdedb76056e8b4b3f39d9657d59eef28defe66dc767387020764736f6c63430008140033",
  "linkReferences": {},
  "deployedLinkReferences": {}
}