{
  "_format": "hh-sol-artifact-1",
  "contractName": "Token",
  "sourceName": "contracts/Token.sol",
  "abi": [
    {
      "inputs": [],
      "stateMutability": "nonpayable",
      "type": "constructor"
    },
    {
      "inputs": [
        {
          "internalType": "address",
          "name": "spender",
          "type": "address"
        },
        {
          "internalType": "uint256",
          "name": "allowance",
          "type": "uint256"
        },
        {
          "internalType": "uint256",
          "name": "needed",
          "type": "uint256"
        }
      ],
      "name": "ERC20InsufficientAllowance",
      "type": "error"
    },
    {
      "inputs": [
        {
          "internalType": "address",
          "name": "sender",
          "type": "address"
        },
        {
          "internalType": "uint256",
          "name": "balance",
          "type": "uint256"
        },
        {
          "internalType": "uint256",
          "name": "needed",
          "type": "uint256"
        }
      ],
      "name": "ERC20InsufficientBalance",
      "type": "error"
    },
    {
      "inputs": [
        {
          "internalType": "address",
          "name": "approver",
          "type": "address"
        }
      ],
      "name": "ERC20InvalidApprover",
      "type": "error"
    },
    {
      "inputs": [
        {
          "internalType": "address",
          "name": "receiver",
          "type": "address"
        }
      ],
      "name": "ERC20InvalidReceiver",
      "type": "error"
    },
    {
      "inputs": [
        {
          "internalType": "address",
          "name": "sender",
          "type": "address"
        }
      ],
      "name": "ERC20InvalidSender",
      "type": "error"
    },
    {
      "inputs": [
        {
          "internalType": "address",
          "name": "spender",
          "type": "address"
        }
      ],
      "name": "ERC20InvalidSpender",
      "type": "error"
    },
    {
      "anonymous": false,
      "inputs": [
        {
          "indexed": true,
          "internalType": "address",
          "name": "owner",
          "type": "address"
        },
        {
          "indexed": true,
          "internalType": "address",
          "name": "spender",
          "type": "address"
        },
        {
          "indexed": false,
          "internalType": "uint256",
          "name": "value",
          "type": "uint256"
        }
      ],
      "name": "Approval",
      "type": "event"
    },
    {
      "anonymous": false,
      "inputs": [
        {
          "indexed": false,
          "internalType": "uint256",
          "name": "newPrice",
          "type": "uint256"
        }
      ],
      "name": "PriceUpdated",
      "type": "event"
    },
    {
      "anonymous": false,
      "inputs": [
        {
          "indexed": false,
          "internalType": "address",
          "name": "buyer",
          "type": "address"
        },
        {
          "indexed": false,
          "internalType": "uint256",
          "name": "ethSpent",
          "type": "uint256"
        },
        {
          "indexed": false,
          "internalType": "uint256",
          "name": "tokensBought",
          "type": "uint256"
        }
      ],
      "name": "TokensPurchased",
      "type": "event"
    },
    {
      "anonymous": false,
      "inputs": [
        {
          "indexed": false,
          "internalType": "address",
          "name": "seller",
          "type": "address"
        },
        {
          "indexed": false,
          "internalType": "uint256",
          "name": "ethReceived",
          "type": "uint256"
        },
        {
          "indexed": false,
          "internalType": "uint256",
          "name": "tokensSold",
          "type": "uint256"
        }
      ],
      "name": "TokensSold",
      "type": "event"
    },
    {
      "anonymous": false,
      "inputs": [
        {
          "indexed": true,
          "internalType": "address",
          "name": "from",
          "type": "address"
        },
        {
          "indexed": true,
          "internalType": "address",
          "name": "to",
          "type": "address"
        },
        {
          "indexed": false,
          "internalType": "uint256",
          "name": "value",
          "type": "uint256"
        }
      ],
      "name": "Transfer",
      "type": "event"
    },
    {
      "inputs": [
        {
          "internalType": "address",
          "name": "owner",
          "type": "address"
        },
        {
          "internalType": "address",
          "name": "spender",
          "type": "address"
        }
      ],
      "name": "allowance",
      "outputs": [
        {
          "internalType": "uint256",
          "name": "",
          "type": "uint256"
        }
      ],
      "stateMutability": "view",
      "type": "function"
    },
    {
      "inputs": [
        {
          "internalType": "address",
          "name": "spender",
          "type": "address"
        },
        {
          "internalType": "uint256",
          "name": "value",
          "type": "uint256"
        }
      ],
      "name": "approve",
      "outputs": [
        {
          "internalType": "bool",
          "name": "",
          "type": "bool"
        }
      ],
      "stateMutability": "nonpayable",
      "type": "function"
    },
    {
      "inputs": [
        {
          "internalType": "address",
          "name": "account",
          "type": "address"
        }
      ],
      "name": "balanceOf",
      "outputs": [
        {
          "internalType": "uint256",
          "name": "",
          "type": "uint256"
        }
      ],
      "stateMutability": "view",
      "type": "function"
    },
    {
      "inputs": [],
      "name": "buyTokens",
      "outputs": [],
      "stateMutability": "payable",
      "type": "function"
    },
    {
      "inputs": [],
      "name": "decimals",
      "outputs": [
        {
          "internalType": "uint8",
          "name": "",
          "type": "uint8"
        }
      ],
      "stateMutability": "view",
      "type": "function"
    },
    {
      "inputs": [],
      "name": "name",
      "outputs": [
        {
          "internalType": "string",
          "name": "",
          "type": "string"
        }
      ],
      "stateMutability": "view",
      "type": "function"
    },
    {
      "inputs": [],
      "name": "owner",
      "outputs": [
        {
          "internalType": "address",
          "name": "",
          "type": "address"
        }
      ],
      "stateMutability": "view",
      "type": "function"
    },
    {
      "inputs": [],
      "name": "price",
      "outputs": [
        {
          "internalType": "uint256",
          "name": "",
          "type": "uint256"
        }
      ],
      "stateMutability": "view",
      "type": "function"
    },
    {
      "inputs": [
        {
          "internalType": "uint256",
          "name": "amount",
          "type": "uint256"
        }
      ],
      "name": "sellTokens",
      "outputs": [],
      "stateMutability": "nonpayable",
      "type": "function"
    },
    {
      "inputs": [],
      "name": "symbol",
      "outputs": [
        {
          "internalType": "string",
          "name": "",
          "type": "string"
        }
      ],
      "stateMutability": "view",
      "type": "function"
    },
    {
      "inputs": [],
      "name": "totalSupply",
      "outputs": [
        {
          "internalType": "uint256",
          "name": "",
          "type": "uint256"
        }
      ],
      "stateMutability": "view",
      "type": "function"
    },
    {
      "inputs": [
        {
          "internalType": "address",
          "name": "to",
          "type": "address"
        },
        {
          "internalType": "uint256",
          "name": "value",
          "type": "uint256"
        }
      ],
      "name": "transfer",
      "outputs": [
        {
          "internalType": "bool",
          "name": "",
          "type": "bool"
        }
      ],
      "stateMutability": "nonpayable",
      "type": "function"
    },
    {
      "inputs": [
        {
          "internalType": "address",
          "name": "from",
          "type": "address"
        },
        {
          "internalType": "address",
          "name": "to",
          "type": "address"
        },
        {
          "internalType": "uint256",
          "name": "value",
          "type": "uint256"
        }
      ],
      "name": "transferFrom",
      "outputs": [
        {
          "internalType": "bool",
          "name": "",
          "type": "bool"
        }
      ],
      "stateMutability": "nonpayable",
      "type": "function"
    },
    {
      "inputs": [
        {
          "internalType": "uint256",
          "name": "newPrice",
          "type": "uint256"
        }
      ],
      "name": "updatePrice",
      "outputs": [],
      "stateMutability": "nonpayable",
      "type": "function"
    }
  ],
  "bytecode": "0x60806040523480156200001157600080fd5b506040518060400160405280600a81526020017f4a656666205065736f73000000000000000000000000000000000000000000008152506040518060400160405280600381526020017f4a4650000000000000000000000000000000000000000000000000000000000081525081600390816200008f919062000694565b508060049081620000a1919062000694565b50505033600660006101000a81548173ffffffffffffffffffffffffffffffffffffffff021916908373ffffffffffffffffffffffffffffffffffffffff16021790555062000146600660009054906101000a900473ffffffffffffffffffffffffffffffffffffffff166200011c6200015860201b60201c565b600a6200012a91906200090b565b620f42406200013a91906200095c565b6200015d60201b60201c565b64e8d4a5100060058190555062000aaf565b600090565b600073ffffffffffffffffffffffffffffffffffffffff168273ffffffffffffffffffffffffffffffffffffffff1603620001d25760006040517fec442f05000000000000000000000000000000000000000000000000000000008152600401620001c99190620009ec565b60405180910390fd5b620001e660008383620001ea60201b60201c565b5050565b600073ffffffffffffffffffffffffffffffffffffffff168373ffffffffffffffffffffffffffffffffffffffff16036200024057806002600082825462000233919062000a09565b9250508190555062000316565b60008060008573ffffffffffffffffffffffffffffffffffffffff1673ffffffffffffffffffffffffffffffffffffffff16815260200190815260200160002054905081811015620002cf578381836040517fe450d38c000000000000000000000000000000000000000000000000000000008152600401620002c69392919062000a55565b60405180910390fd5b8181036000808673ffffffffffffffffffffffffffffffffffffffff1673ffffffffffffffffffffffffffffffffffffffff16815260200190815260200160002081905550505b600073ffffffffffffffffffffffffffffffffffffffff168273ffffffffffffffffffffffffffffffffffffffff1603620003615780600260008282540392505081905550620003ae565b806000808473ffffffffffffffffffffffffffffffffffffffff1673ffffffffffffffffffffffffffffffffffffffff168152602001908152602001600020600082825401925050819055505b8173ffffffffffffffffffffffffffffffffffffffff168373ffffffffffffffffffffffffffffffffffffffff167fddf252ad1be2c89b69c2b068fc378daa952ba7f163c4a11628f55a4df523b3ef836040516200040d919062000a92565b60405180910390a3505050565b600081519050919050565b7f4e487b7100000000000000000000000000000000000000000000000000000000600052604160045260246000fd5b7f4e487b7100000000000000000000000000000000000000000000000000000000600052602260045260246000fd5b600060028204905060018216806200049c57607f821691505b602082108103620004b257620004b162000454565b5b50919050565b60008190508160005260206000209050919050565b60006020601f8301049050919050565b600082821b905092915050565b6000600883026200051c7fffffffffffffffffffffffffffffffffffffffffffffffffffffffffffffffff82620004dd565b620005288683620004dd565b95508019841693508086168417925050509392505050565b6000819050919050565b6000819050919050565b6000620005756200056f620005698462000540565b6200054a565b62000540565b9050919050565b6000819050919050565b620005918362000554565b620005a9620005a0826200057c565b848454620004ea565b825550505050565b600090565b620005c0620005b1565b620005cd81848462000586565b505050565b5b81811015620005f557620005e9600082620005b6565b600181019050620005d3565b5050565b601f82111562000644576200060e81620004b8565b6200061984620004cd565b8101602085101562000629578190505b620006416200063885620004cd565b830182620005d2565b50505b505050565b600082821c905092915050565b6000620006696000198460080262000649565b1980831691505092915050565b600062000684838362000656565b9150826002028217905092915050565b6200069f826200041a565b67ffffffffffffffff811115620006bb57620006ba62000425565b5b620006c7825462000483565b620006d4828285620005f9565b600060209050601f8311600181146200070c5760008415620006f7578287015190505b62000703858262000676565b86555062000773565b601f1984166200071c86620004b8565b60005b8281101562000746578489015182556001820191506020850194506020810190506200071f565b8683101562000766578489015162000762601f89168262000656565b8355505b6001600288020188555050505b505050505050565b7f4e487b7100000000000000000000000000000000000000000000000000000000600052601160045260246000fd5b60008160011c9050919050565b6000808291508390505b60018511156200080957808604811115620007e157620007e06200077b565b5b6001851615620007f15780820291505b80810290506200080185620007aa565b9450620007c1565b94509492505050565b600082620008245760019050620008f7565b81620008345760009050620008f7565b81600181146200084d576002811462000858576200088e565b6001915050620008f7565b60ff8411156200086d576200086c6200077b565b5b8360020a9150848211156200088757620008866200077b565b5b50620008f7565b5060208310610133831016604e8410600b8410161715620008c85782820a905083811115620008c257620008c16200077b565b5b620008f7565b620008d78484846001620007b7565b92509050818404811115620008f157620008f06200077b565b5b81810290505b9392505050565b600060ff82169050919050565b6000620009188262000540565b91506200092583620008fe565b9250620009547fffffffffffffffffffffffffffffffffffffffffffffffffffffffffffffffff848462000812565b905092915050565b6000620009698262000540565b9150620009768362000540565b9250828202620009868162000540565b91508282048414831517620009a0576200099f6200077b565b5b5092915050565b600073ffffffffffffffffffffffffffffffffffffffff82169050919050565b6000620009d482620009a7565b9050919050565b620009e681620009c7565b82525050565b600060208201905062000a036000830184620009db565b92915050565b600062000a168262000540565b915062000a238362000540565b925082820190508082111562000a3e5762000a3d6200077b565b5b92915050565b62000a4f8162000540565b82525050565b600060608201905062000a6c6000830186620009db565b62000a7b602083018562000a44565b62000a8a604083018462000a44565b949350505050565b600060208201905062000aa9600083018462000a44565b92915050565b6118128062000abf6000396000f3fe6080604052600436106100dd5760003560e01c80638d6cc56d1161007f578063a035b1fe11610059578063a035b1fe146102c2578063a9059cbb146102ed578063d0febe4c1461032a578063dd62ed3e14610334576100dd565b80638d6cc56d146102435780638da5cb5b1461026c57806395d89b4114610297576100dd565b806323b872dd116100bb57806323b872dd14610175578063313ce567146101b25780636c11bcd3146101dd57806370a0823114610206576100dd565b806306fdde03146100e2578063095ea7b31461010d57806318160ddd1461014a575b600080fd5b3480156100ee57600080fd5b506100f7610371565b604051610104919061107d565b60405180910390f35b34801561011957600080fd5b50610134600480360381019061012f9190611138565b610403565b6040516101419190611193565b60405180910390f35b34801561015657600080fd5b5061015f610426565b60405161016c91906111bd565b60405180910390f35b34801561018157600080fd5b5061019c600480360381019061019791906111d8565b610430565b6040516101a99190611193565b60405180910390f35b3480156101be57600080fd5b506101c761045f565b6040516101d49190611247565b60405180910390f35b3480156101e957600080fd5b5061020460048036038101906101ff9190611262565b610464565b005b34801561021257600080fd5b5061022d6004803603810190610228919061128f565b6105af565b60405161023a91906111bd565b60405180910390f35b34801561024f57600080fd5b5061026a60048036038101906102659190611262565b6105f7565b005b34801561027857600080fd5b506102816106c8565b60405161028e91906112cb565b60405180910390f35b3480156102a357600080fd5b506102ac6106ee565b6040516102b9919061107d565b60405180910390f35b3480156102ce57600080fd5b506102d7610780565b6040516102e491906111bd565b60405180910390f35b3480156102f957600080fd5b50610314600480360381019061030f9190611138565b610786565b6040516103219190611193565b60405180910390f35b6103326107a9565b005b34801561034057600080fd5b5061035b600480360381019061035691906112e6565b6109c7565b60405161036891906111bd565b60405180910390f35b60606003805461038090611355565b80601f01602080910402602001604051908101604052809291908181526020018280546103ac90611355565b80156103f95780601f106103ce576101008083540402835291602001916103f9565b820191906000526020600020905b8154815290600101906020018083116103dc57829003601f168201915b5050505050905090565b60008061040e610a4e565b905061041b818585610a56565b600191505092915050565b6000600254905090565b60008061043b610a4e565b9050610448858285610a68565b610453858585610afd565b60019150509392505050565b600090565b600081116104a7576040517f08c379a000000000000000000000000000000000000000000000000000000000815260040161049e906113d2565b60405180910390fd5b6000600554826104b79190611421565b9050804710156104fc576040517f08c379a00000000000000000000000000000000000000000000000000000000081526004016104f3906114af565b60405180910390fd5b61052933600660009054906101000a900473ffffffffffffffffffffffffffffffffffffffff1684610afd565b3373ffffffffffffffffffffffffffffffffffffffff166108fc829081150290604051600060405180830381858888f1935050505015801561056f573d6000803e3d6000fd5b507f2dcf9433d75db0d8b1c172641f85e319ffe4ad22e108a95d1847ceb906e5195d3382846040516105a3939291906114cf565b60405180910390a15050565b60008060008373ffffffffffffffffffffffffffffffffffffffff1673ffffffffffffffffffffffffffffffffffffffff168152602001908152602001600020549050919050565b600660009054906101000a900473ffffffffffffffffffffffffffffffffffffffff1673ffffffffffffffffffffffffffffffffffffffff163373ffffffffffffffffffffffffffffffffffffffff1614610687576040517f08c379a000000000000000000000000000000000000000000000000000000000815260040161067e90611552565b60405180910390fd5b806005819055507f66cbca4f3c64fecf1dcb9ce094abcf7f68c3450a1d4e3a8e917dd621edb4ebe0816040516106bd91906111bd565b60405180910390a150565b600660009054906101000a900473ffffffffffffffffffffffffffffffffffffffff1681565b6060600480546106fd90611355565b80601f016020809104026020016040519081016040528092919081815260200182805461072990611355565b80156107765780601f1061074b57610100808354040283529160200191610776565b820191906000526020600020905b81548152906001019060200180831161075957829003601f168201915b5050505050905090565b60055481565b600080610791610a4e565b905061079e818585610afd565b600191505092915050565b600034116107ec576040517f08c379a00000000000000000000000000000000000000000000000000000000081526004016107e3906115be565b60405180910390fd5b600060055411610831576040517f08c379a00000000000000000000000000000000000000000000000000000000081526004016108289061162a565b60405180910390fd5b6000600554346108419190611679565b905060008111610886576040517f08c379a000000000000000000000000000000000000000000000000000000000815260040161087d9061171c565b60405180910390fd5b806108b2600660009054906101000a900473ffffffffffffffffffffffffffffffffffffffff166105af565b10156108f3576040517f08c379a00000000000000000000000000000000000000000000000000000000081526004016108ea90611788565b60405180910390fd5b610920600660009054906101000a900473ffffffffffffffffffffffffffffffffffffffff163383610afd565b600660009054906101000a900473ffffffffffffffffffffffffffffffffffffffff1673ffffffffffffffffffffffffffffffffffffffff166108fc349081150290604051600060405180830381858888f19350505050158015610988573d6000803e3d6000fd5b507f8fafebcaf9d154343dad25669bfa277f4fbacd7ac6b0c4fed522580e040a0f333334836040516109bc939291906114cf565b60405180910390a150565b6000600160008473ffffffffffffffffffffffffffffffffffffffff1673ffffffffffffffffffffffffffffffffffffffff16815260200190815260200160002060008373ffffffffffffffffffffffffffffffffffffffff1673ffffffffffffffffffffffffffffffffffffffff16815260200190815260200160002054905092915050565b600033905090565b610a638383836001610bf1565b505050565b6000610a7484846109c7565b90507fffffffffffffffffffffffffffffffffffffffffffffffffffffffffffffffff811015610af75781811015610ae7578281836040517ffb8f41b2000000000000000000000000000000000000000000000000000000008152600401610ade939291906114cf565b60405180910390fd5b610af684848484036000610bf1565b5b50505050565b600073ffffffffffffffffffffffffffffffffffffffff168373ffffffffffffffffffffffffffffffffffffffff1603610b6f5760006040517f96c6fd1e000000000000000000000000000000000000000000000000000000008152600401610b6691906112cb565b60405180910390fd5b600073ffffffffffffffffffffffffffffffffffffffff168273ffffffffffffffffffffffffffffffffffffffff1603610be15760006040517fec442f05000000000000000000000000000000000000000000000000000000008152600401610bd891906112cb565b60405180910390fd5b610bec838383610dc8565b505050565b600073ffffffffffffffffffffffffffffffffffffffff168473ffffffffffffffffffffffffffffffffffffffff1603610c635760006040517fe602df05000000000000000000000000000000000000000000000000000000008152600401610c5a91906112cb565b60405180910390fd5b600073ffffffffffffffffffffffffffffffffffffffff168373ffffffffffffffffffffffffffffffffffffffff1603610cd55760006040517f94280d62000000000000000000000000000000000000000000000000000000008152600401610ccc91906112cb565b60405180910390fd5b81600160008673ffffffffffffffffffffffffffffffffffffffff1673ffffffffffffffffffffffffffffffffffffffff16815260200190815260200160002060008573ffffffffffffffffffffffffffffffffffffffff1673ffffffffffffffffffffffffffffffffffffffff168152602001908152602001600020819055508015610dc2578273ffffffffffffffffffffffffffffffffffffffff168473ffffffffffffffffffffffffffffffffffffffff167f8c5be1e5ebec7d5bd14f71427d1e84f3dd0314c0f7b2291e5b200ac8c7c3b92584604051610db991906111bd565b60405180910390a35b50505050565b600073ffffffffffffffffffffffffffffffffffffffff168373ffffffffffffffffffffffffffffffffffffffff1603610e1a578060026000828254610e0e91906117a8565b92505081905550610eed565b60008060008573ffffffffffffffffffffffffffffffffffffffff1673ffffffffffffffffffffffffffffffffffffffff16815260200190815260200160002054905081811015610ea6578381836040517fe450d38c000000000000000000000000000000000000000000000000000000008152600401610e9d939291906114cf565b60405180910390fd5b8181036000808673ffffffffffffffffffffffffffffffffffffffff1673ffffffffffffffffffffffffffffffffffffffff16815260200190815260200160002081905550505b600073ffffffffffffffffffffffffffffffffffffffff168273ffffffffffffffffffffffffffffffffffffffff1603610f365780600260008282540392505081905550610f83565b806000808473ffffffffffffffffffffffffffffffffffffffff1673ffffffffffffffffffffffffffffffffffffffff168152602001908152602001600020600082825401925050819055505b8173ffffffffffffffffffffffffffffffffffffffff168373ffffffffffffffffffffffffffffffffffffffff167fddf252ad1be2c89b69c2b068fc378daa952ba7f163c4a11628f55a4df523b3ef83604051610fe091906111bd565b60405180910390a3505050565b600081519050919050565b600082825260208201905092915050565b60005b8381101561102757808201518184015260208101905061100c565b60008484015250505050565b6000601f19601f8301169050919050565b600061104f82610fed565b6110598185610ff8565b9350611069818560208601611009565b61107281611033565b840191505092915050565b600060208201905081810360008301526110978184611044565b905092915050565b600080fd5b600073ffffffffffffffffffffffffffffffffffffffff82169050919050565b60006110cf826110a4565b9050919050565b6110df816110c4565b81146110ea57600080fd5b50565b6000813590506110fc816110d6565b92915050565b6000819050919050565b61111581611102565b811461112057600080fd5b50565b6000813590506111328161110c565b92915050565b6000806040838503121561114f5761114e61109f565b5b600061115d858286016110ed565b925050602061116e85828601611123565b9150509250929050565b60008115159050919050565b61118d81611178565b82525050565b60006020820190506111a86000830184611184565b92915050565b6111b781611102565b82525050565b60006020820190506111d260008301846111ae565b92915050565b6000806000606084860312156111f1576111f061109f565b5b60006111ff868287016110ed565b9350506020611210868287016110ed565b925050604061122186828701611123565b9150509250925092565b600060ff82169050919050565b6112418161122b565b82525050565b600060208201905061125c6000830184611238565b92915050565b6000602082840312156112785761127761109f565b5b600061128684828501611123565b91505092915050565b6000602082840312156112a5576112a461109f565b5b60006112b3848285016110ed565b91505092915050565b6112c5816110c4565b82525050565b60006020820190506112e060008301846112bc565b92915050565b600080604083850312156112fd576112fc61109f565b5b600061130b858286016110ed565b925050602061131c858286016110ed565b9150509250929050565b7f4e487b7100000000000000000000000000000000000000000000000000000000600052602260045260246000fd5b6000600282049050600182168061136d57607f821691505b6020821081036113805761137f611326565b5b50919050565b7f416d6f756e74206d757374206265203e20300000000000000000000000000000600082015250565b60006113bc601283610ff8565b91506113c782611386565b602082019050919050565b600060208201905081810360008301526113eb816113af565b9050919050565b7f4e487b7100000000000000000000000000000000000000000000000000000000600052601160045260246000fd5b600061142c82611102565b915061143783611102565b925082820261144581611102565b9150828204841483151761145c5761145b6113f2565b5b5092915050565b7f4e6f7420656e6f7567682045544820696e20636f6e7472616374000000000000600082015250565b6000611499601a83610ff8565b91506114a482611463565b602082019050919050565b600060208201905081810360008301526114c88161148c565b9050919050565b60006060820190506114e460008301866112bc565b6114f160208301856111ae565b6114fe60408301846111ae565b949350505050565b7f4f6e6c79206f776e65722063616e207570646174652070726963650000000000600082015250565b600061153c601b83610ff8565b915061154782611506565b602082019050919050565b6000602082019050818103600083015261156b8161152f565b9050919050565b7f53656e642045544820746f2062757920746f6b656e7300000000000000000000600082015250565b60006115a8601683610ff8565b91506115b382611572565b602082019050919050565b600060208201905081810360008301526115d78161159b565b9050919050565b7f546f6b656e207072696365206973206e6f742073657400000000000000000000600082015250565b6000611614601683610ff8565b915061161f826115de565b602082019050919050565b6000602082019050818103600083015261164381611607565b9050919050565b7f4e487b7100000000000000000000000000000000000000000000000000000000600052601260045260246000fd5b600061168482611102565b915061168f83611102565b92508261169f5761169e61164a565b5b828204905092915050565b7f4e6f7420656e6f756768204554482073656e7420746f2062757920616e79207460008201527f6f6b656e73000000000000000000000000000000000000000000000000000000602082015250565b6000611706602583610ff8565b9150611711826116aa565b604082019050919050565b60006020820190508181036000830152611735816116f9565b9050919050565b7f4e6f7420656e6f75676820746f6b656e7320696e207265736572766500000000600082015250565b6000611772601c83610ff8565b915061177d8261173c565b602082019050919050565b600060208201905081810360008301526117a181611765565b9050919050565b60006117b382611102565b91506117be83611102565b92508282019050808211156117d6576117d56113f2565b5b9291505056fea2646970667358221220c870f15aa53a0403cc0e931a56f050ada7acecf560c40182853de9c5868c4da864736f6c63430008140033",
  "linkReferences": {},
  "deployedLinkReferences": {}
}